:100000000C94CB040C94FC040C94FC040C94FC04A1
:100010000C94FC040C94FC040C94FC040C94FC0460
:100020000C94FC040C9434420C9434420C943442EE
:100030000C94FC040C94FC040C94FC040C94FC0440
:100040000C94FC040C94FC040C94FC040C94FC0430
:100050000C94FC040C94FC040C94FC040C94C6401A
:100060000C94FC040C9490400C9466400C94FC049A
:100070000C94FC040C94FC040C94FC040C94FC0400
:100080000C94FC040C94FC040C94FC040C94FC04F0
:100090000C9430400C9406400C94FC040C941041D9
:1000A0000C94FC040C94FC040C94FC040C94FC04D0
:1000B0000C94FC040C94FC040C94FC040C94FC04C0
:1000C0000C94FC040C94FC040C94FC040C94FC04B0
:1000D0000C94FC040C94FC040C94FC040C94FC04A0
:1000E0000C94FC040C94BE060C94C6210C949B0545
:1000F0000C94BA060C94E8260C947D240C94E20A25
:100100000C9418050C94540A0C94D0060C947905A0
:100110000C949F060C9416050C94670A0C94CA0A5A
:100120000C94450A0C94DD050C944A210C943E0B6A
:100130000C941A4B0C9440210C942A060C94C7265C
:100140000C94BC260C9468260C94D5060C946A0575
:100150000C94620B0C94B0060C9436200C9417058A
:100160000C949B0A0C94D20D0C94B5260C94DC4292
:100170000C94560B0C94CC060C949B060C94C8065D
:100180000C94A7060C9445210C94D6060C94DD2102
:100190000C948D050C94DA060C946E0A0C94AA0645
:1001A0000C94A50B0C94B20B0C944F210C94950657
:1001B0000C940B220C943D050C94C3260C94A306BE
:1001C0000C94F4210C9459210C9450220C94392253
:1001D0000C9454210C94DF200C9422220C948B2636
:1001E0000C94C2060C94920F0C94B40600407A1042
:1001F000F35A00A0724E18090010A5D4E80000E8D8
:100200007648170000E40B54020000CA9A3B000035
:1002100000E1F505000080969800000040420F00C4
:100220000000A08601000000102700000000E80385
:10023000000000006400000000000A000000000050
:100240000100000000002C76D888DC674F0823DF0F
:10025000C1DFAE59E1B1B796E5E3E453C63AE651E2
:10026000997696E8E6C28426EB898C9B62ED407C09
:100270006FFCEFBC9C9F40F2BAA56FA5F490055AA5
:100280002AF75C936B6CF9676DC11BFCE0E40D47CA
:10029000FEF520E6B500D0ED902E030094357705ED
:1002A0000080841E080000204E0A000000C80C33A5
:1002B0003333330F986E12831141EF8D2114893B34
:1002C000E65516CFFEE6DB18D1844B381BF77C1DB4
:1002D000901DA4BBE424203284725E228100C9F107
:1002E00024ECA1E53D27476153694D207A4F4E75B7
:1002F0002000476173694D205A6F6E552000476199
:1003000073696D2046455254203300476173696D0F
:100310002046455254203200476173696D2046459E
:1003200052542031002D2D2D2D2D2D2D2D2D2D2DE7
:100330002D2D2D2D2D2D2D2D2D2D2D2D2D2D2D2DED
:100340002D2D2D2D2D2D2D2D2D2D2D2D2D2D006DCA
:10035000532F636D2040203235C2B043006D532FC0
:10036000636D2C2020002C20436F6E647563743AFB
:1003700020002C20416D706C3A0054656D703A205D
:10038000002D2D2D2D2D2D2D2D2D2D2D2D2D2D2DCA
:100390002D2D2D2D2D2D2D2D2D2D2D2D2D2D2D2D8D
:1003A0002D2D2D2D2D2D2D2D2D2D00476173696D9A
:1003B000207A6F6E7520006A736F6E3A0055736114
:1003C0006F2075206C6F6F70002D2D2D2D2D2D2D14
:1003D0002D2D2D2D2D2D2D2D2D2D2D2D2D2D2D2D4D
:1003E0002D2D2D2D2D2D2D2D2D2D2D2D2D2D2D2D3D
:1003F0002D2D00203D20434832205B004375727252
:10040000656E74204F5554203D002C204D203D201A
:10041000004B203D20002C204572726F7220002C72
:100420002044657369726520004D6561737572655E
:100430006420002D2D2D2D2D2D2D2D2D2D2D2D2DEF
:100440002D2D2D2D2D2D2D2D2D2D2D2D2D2D2D2DDC
:100450002D2D2D2D2D2D2D2D2D2D2D2D00415445A6
:100460003000415426460041542B43504D533D2209
:10047000534D222C22534D222C22534D2200415405
:100480002B434E4D493D322C300041542B434950B3
:10049000534855540041542B435042533D22534D31
:1004A000220041542B434D47463D310041542B43DC
:1004B0004D45453D300041542B434C49503D3100A2
:1004C0004552524F523A2053494D39303020646FD3
:1004D00065736E277420616E737765722E20436892
:1004E00065636B20706F77657220616E6420736541
:1004F0007269616C2070696E7320696E2047534D7C
:100500002E6370700041542B4950523D39363030C3
:100510000D003131353230300041542B4950523DBD
:10052000393630300D0035373630300041542B49E4
:1005300050523D393630300D0033383430300041C0
:10054000542B4950523D393630300D00313932305C
:10055000300041542B4950523D393630300D00396E
:100560003630300041542B4950523D393630300D31
:1005700000343830300041542B4950523D39363028
:10058000300D00323430300041542B4950523D3947
:100590003630300D003132303000547279696E6778
:1005A00020746F20666F72636520746865206261D5
:1005B00075642D7261746520746F20393630300A8D
:1005C00000446F6E277420757365206261756472D4
:1005D000617465203131353230302077697468209C
:1005E000536F6674776172652053657269616C2E12
:1005F000204175746F6D617469636C792077696CE3
:100600006C20626520736574206F6E20393630303F
:100610000000002100240027002A002D00300033B4
:100620000001010000040107010A0100000A0B0299
:10063000090C0D0E08070304010000000000000073
:1006400000000000000000000000000000000000AA
:100650000000000000000012111000000000000067
:10066000000000000000000000000000000000008A
:100670000041542B434D47523D0047534D264750B0
:1006800052533D4E4F547374617274656400455209
:10069000524F520041545441434845440047505240
:1006A000533D0049444C450052454144590047538D
:1006B0004D3D0028524529737461727420754300C2
:1006C0002D2D2D2D2D2D2D2D2D2D2D2D2D2D2D2D5A
:1006D0002D2D2D2D2D2D2D2D2D2D2D2D2D2D004361
:1006E000757272656E74204F5554203D00204B6921
:1006F000203D20002C204572726F72203D20002C7E
:10070000204D65617375726564203D20007048203E
:1007100044657369726520203D20004375727265DF
:100720006E742044722E20002D2D2D2D2D2D2D2D5B
:100730002D2D2D2D2D2D2D2D2D2D2D2D2D2D2D2DE9
:100740002D2D2D2D2D2D00636F6E6E65637454431A
:10075000503A3A41542B43495053454E443A52582B
:100760005F46494E49534845445F5354525F4E4F8C
:10077000545F5245435600636F6E6E656374544315
:10078000503A41542B43495053454E443A52585FD6
:10079000544D4F55545F455252004E6F7420726550
:1007A000736574696E672041726475696E6F20624B
:1007B000656163757365206F662061637469766532
:1007C0002069727269676174696F6E2E0052657379
:1007D0006574696E672041726475696E6F2E2E2E86
:1007E000007374617475733D4552524F52007374B7
:1007F000617475733D41545441434845440041740C
:1008000074616368204750525320636F6E6E656356
:1008100074696F6E2E2E2E000A7374617475733DA9
:1008200049444C45000A7374617475733D524541E7
:1008300044590047534D20536869656C64207465C2
:100840007374696E672E0052657374617274696E99
:10085000672053494D206D6F64756C652E2E2E00F8
:1008600044657474616368204750525320636F6E0F
:100870006E656374696F6E2E2E2E0041542B434DAE
:1008800047533D2200446F6E27742073656E6420C9
:100890006D657373616765206C6F6E676572207438
:1008A00068616E20313630206368617261637465FF
:1008B00072730041542B434D47443D0041542B4338
:1008C0004D474C3D2252454320554E52454144220E
:1008D00000000020002300260029002C002F0032F9
:1008E00000000100000301060109010000220025AB
:1008F0000028002B002E003100340002010000050A
:100900000108010B0105050505070508080808028F
:100910000202020A0A080804040404010101010198
:100920000101010303030303030303040707070C87
:100930000C0C0C0C0C0C0C0202020206060606063D
:100940000606060B0B0B0B0B0B0B0B0102102020EA
:100950000808102040102040800201020108040213
:100960000101020408102040808040201008040289
:1009700001800402018040201008040201080402E2
:1009800001010204081020408001020408102040E8
:100990008000DC421A4B11241FBECFEFD1E2DEBF34
:1009A000CDBF00E00CBF25E1ACEEB7E001C01D9269
:1009B000AD36B207E1F717E0A0E0B2E0E6E3F8EA0F
:1009C00000E00BBF02C007900D92AC3EB107D9F713
:1009D00014E0CAECD4E000E006C021970109802FA2
:1009E000FE010E947D51C93CD10780E00807A9F7AC
:1009F0000E94AD440C9409540C940000DC01149640
:100A00002D913C911597232B41F0ED91FC9181E0C4
:100A10009081992319F080E0089581E008950E9463
:100A2000FE0491E0811190E0892F089508950895C2
:100A30000895EF92FF920F931F93CF93DF938C0152
:100A40007B01D0E0C0E0F701EC0FFD1F649166234D
:100A500061F0D801ED91FC910190F081E02DC80189
:100A60001995892B11F02196EECFCE01DF91CF9110
:100A70001F910F91FF90EF900895AF92BF92CF9288
:100A8000DF92EF92FF920F931F93CF93DF936C014E
:100A90007B018B01040F151FEB015E01AE18BF082F
:100AA000C017D10759F06991D601ED91FC910190E1
:100AB000F081E02DC6011995892B79F7C501DF91E9
:100AC000CF911F910F91FF90EF90DF90CF90BF904B
:100AD000AF900895FC01538D448D252F30E0842F75
:100AE00090E0821B930B541710F0CF960895019756
:100AF0000895FC01918D828D981761F0A28DAE0F43
:100B0000BF2FB11D5D968C91928D9F5F9F73928FC9
:100B100090E008958FEF9FEF0895FC01918D828DF5
:100B2000981731F0828DE80FF11D858D90E00895C2
:100B30008FEF9FEF0895FC01918D228D892F90E01A
:100B4000805C9F4F821B91098F739927089588E6D7
:100B50009EE00E949B0521E0892B09F420E0822F72
:100B6000089585E09FE00E949B0521E0892B09F410
:100B700020E0822F0895FC01A48DA80FB92FB11D8C
:100B8000A35ABF4F2C91848D90E001968F739927C3
:100B9000848FA689B7892C93A089B1898C918370A1
:100BA00080648C93938D848D981306C00288F3899A
:100BB000E02D80818F7D80830895EF92FF920F93C7
:100BC0001F93CF93DF93EC0181E0888F9B8D8C8DF9
:100BD00098131AC0E889F989808185FF15C09FB7ED
:100BE000F894EE89FF896083E889F98980818370B0
:100BF000806480839FBF81E090E0DF91CF911F915F
:100C00000F91FF90EF900895F62E0B8D10E00F5F7F
:100C10001F4F0F731127E02E8C8D8E110CC00FB655
:100C200007FCFACFE889F989808185FFF5CFCE01ED
:100C30000E94BB05F1CFEB8DEC0FFD2FF11DE35AA8
:100C4000FF4FF0829FB7F8940B8FEA89FB89808170
:100C50008062CFCFCF93DF93EC01888D8823B9F0EA
:100C6000AA89BB89E889F9898C9185FD03C08081B7
:100C700086FD0DC00FB607FCF7CF8C9185FFF2CF34
:100C8000808185FFEDCFCE010E94BB05E9CFDF91CA
:100C9000CF91089580E090E0892B29F00E94B10562
:100CA00081110E94000080E090E0892B29F00E94D1
:100CB000A70581110E94000080E090E0892B49F097
:100CC00080E090E0892B29F00E94000081110E94B1
:100CD000000080E090E0892B49F080E090E0892BD3
:100CE00029F00E94000081110C94000008958150A9
:100CF000823108F05AC0E82FF0E08827ED57F94F0D
:100D00008F4F0C947D51A306A70695069B069F0660
:100D1000D506AA06B006B406BA06BE06C206C806BE
:100D2000CC06D506D006D606DA06809180008F77ED
:100D3000809380000895809180008F7DF9CF80910D
:100D40008000877FF5CF84B58F7784BD089584B503
:100D50008F7DFBCF8091B0008F778093B000089596
:100D60008091B0008F7DF9CF809190008F77809334
:100D700090000895809190008F7DF9CF8091900030
:100D8000877FF5CF8091A0008F778093A000089592
:100D90008091A0008F7DF9CF8091A000877FF5CF53
:100DA000809120018F778093200108958091200108
:100DB0008F7DF9CF80912001877FF5CFCF93DF938F
:100DC000282F30E0F901E55DF94F8491F901E55BE9
:100DD000F64FD491F901EB5FF64FC491CC23A1F00B
:100DE00081110E947706EC2FF0E0EE0FFF1FEF520B
:100DF000F74FA591B491EC91ED2381E090E009F4D7
:100E000080E0DF91CF91089580E090E0FACF1F93CA
:100E1000CF93DF93282F30E0F901E55DF94F8491FE
:100E2000F901E55BF64FD491F901EB5FF64FC49100
:100E3000CC23A9F0162F81110E947706EC2FF0E049
:100E4000EE0FFF1FE551F74FA591B4918FB7F894BE
:100E5000EC91111108C0D095DE23DC938FBFDF9198
:100E6000CF911F910895DE2BF8CFEF92FF920F9351
:100E70001F93CF93DF9320914B1430914C14232B6D
:100E800009F0A2C02091531430915414D82F232B71
:100E9000E1F430E020E0D0E090E0E7E0F0E0AC0109
:100EA000022E02C0559547950A94E2F741705527E6
:100EB000BF01621B730B01C0440F6A95EAF7D42B84
:100EC0002F5F3F4F2830310551F7C0E007E010E0B9
:100ED000EE24E394F12CCC0F80915514877F01F51B
:100EE000809158148F3F49F0B701002E01C0660F62
:100EF0000A94EAF76D230E94070761E08091571476
:100F00000E940707809159148F3F29F00E94DE0646
:100F1000892B09F0C16060E0809157140E94070797
:100F200080915514877F843001F561E080915714DA
:100F30000E940707809158148F3F49F0B701002E97
:100F400001C0660F0A94EAF76D230E94070760E06C
:100F5000809157140E940707809159148F3F29F000
:100F60000E94DE06892B09F0C1600150110908F0CA
:100F7000B2CF8091531490915414892B19F530E01D
:100F800020E080E0D0E0E7E0F0E0AE01022E02C019
:100F9000559547950A94E2F741705527BF01621BAA
:100FA000730B01C0440F6A95EAF7842B2F5F3F4F04
:100FB0002830310551F7DF91CF911F910F91FF90AC
:100FC000EF9008958C2FF7CF8EBD0DB407FEFDCFA7
:100FD0008EB5F1CFCF93DF9390E0FC01E55BF64F48
:100FE00024918B5F964FFC0184918823D1F090E08F
:100FF000880F991FFC01EF5EF94FA591B491FC0198
:10100000E551F74FC591D49161110EC09FB7F89487
:101010008C91E22FE0958E238C932881E223E88344
:101020009FBFDF91CF9108958FB7F894EC91E22B99
:10103000EC938FBFF6CF90917B00977F90937B00CE
:101040008653806480937C0080917A0080648093D2
:101050007A0080917A0086FDFCCF80917800909193
:10106000790008953FB7F89480919C0A90919D0A69
:10107000A0919E0AB0919F0A26B5A89B05C02F3F5C
:1010800019F00196A11DB11D3FBFBA2FA92F982FAE
:101090008827BC01CD01620F711D811D911D42E0A9
:1010A000660F771F881F991F4A95D1F708958F9271
:1010B0009F92AF92BF92CF92DF92EF92FF926B011D
:1010C0007C010E9432084B015C01C114D104E1048F
:1010D000F104B9F00E943208681979098A099B095C
:1010E000683E73408105910580F321E0C21AD10862
:1010F000E108F10888EE880E83E0981EA11CB11C5F
:10110000E4CFFF90EF90DF90CF90BF90AF909F9093
:101110008F9008952FB7F8946091980A7091990A6A
:1011200080919A0A90919B0A2FBF08958091AC0AF2
:10113000882361F09FB7F8942091AC0A8091960AB9
:10114000213019F48DBB9FBF08958FBF0895209162
:10115000AC0A222361F02FB7F8943091AC0A3130F9
:1011600049F43DB33093960A3DB33DBB2FBF8CBDD0
:101170009DBD08952093960AFACFCF93C82F8091F2
:101180004B1490914C14892B41F0E0914D14F09147
:101190004E14808191810E94A70860E080915614CE
:1011A0000E94070780E80E9435078C2F0E943507B0
:1011B00061E0809156140E94070780914B14909132
:1011C0004C14892B19F0CF910C949608CF91089567
:1011D000EF92FF920F931F93CF93DF93EC017B016C
:1011E0008A0180914B1490914C14892B41F0E0912D
:1011F0004D14F0914E14808191810E94A70860E007
:10120000809156140E94070788810E943507E701E4
:101210000E0D1F1D0C171D0729F08FEF0E943507BB
:101220008993F8CF61E0809156140E94070780915E
:101230004B1490914C14892B11F00E94960881E078
:10124000DF91CF911F910F91FF90EF900895CF9371
:10125000DF931F921F92CDB7DEB71A82198241E049
:1012600050E0BE016E5F7F4FCE0101960E94E808FC
:101270008A810F900F90DF91CF9108950E942709E6
:10128000837D82600C94BD08FF920F931F93CF93D0
:10129000DF93EC018B0160E08AA10E9407078BA11C
:1012A000882381F188E591E00E94A70860E08AA187
:1012B0000E940707902F812F0CB405FC17C01EBD9C
:1012C00000000DB407FEFDCF8EB59EBD00000DB42D
:1012D00007FEFDCF8EB561E08AA10E940707DF916E
:1012E000CF911F910F91FF900C9496080EBD0000B6
:1012F0000DB407FEFDCF9EB58EBD00000DB407FEF8
:10130000FDCFE8CF60E08AA10E94070790E1F92EA7
:10131000612F661F6627661F88A10E94070760E08D
:1013200089A10E94070761E089A10E940707000FB9
:10133000111FFA94F110ECCF60E088A10E9407071A
:1013400061E08AA1DF91CF911F910F91FF900C94E2
:101350000707CF93CFB7F8948091AD0A811127C0CA
:10136000EAE3F9E08491E0E8F9E09491E82FF0E015
:10137000EE0FFF1FEF5EF94FA591B491EC91E923B9
:1013800021F461E085E30E94070761E085E30E94A4
:10139000EA078CB580618CBD8CB580648CBD61E042
:1013A00084E30E94EA0761E083E30E94EA078091F8
:1013B000AD0A8F5F8093AD0ACFBFCF910895209182
:1013C000050A260F3327331F21323105ECF4209113
:1013D000700AFC0190E080E0243069F082E008951A
:1013E000A091050A2191AC014B51564FA40FB52F86
:1013F000B11D2C930196861798F38091050A680F0A
:101400006093050A80E0089581E008951092700AC3
:1014100081E080936F0A10926A0A61E084E10E9481
:10142000070761E085E10E940707E9EBF0E08081B2
:101430008E7F808380818D7F808388E48093B80055
:1014400085E48093BC000895CF93DF9391E090935F
:10145000E4098823B9F0C091B800D091BA00809116
:10146000BC008A7B8093BC0060E084E10E94070797
:1014700060E085E10E9407070E94060AD093BA0047
:10148000C093B800DF91CF910895E091AB0A8091AD
:10149000AA0AE81730F4F0E0EA58F54F808190E0AE
:1014A00008958FEF9FEF08959091AB0A8091AA0A5B
:1014B0002FEF3FEF981748F4E92FF0E0EA58F54F87
:1014C000208130E09F5F9093AB0AC901089580911D
:1014D000AA0A9091AB0A891B990B0895CF92DF92CB
:1014E000EF92FF920F931F93CF93DF937C01CB0179
:1014F0008A012091280A222389F0EB016B01C40E96
:10150000D51ECC15DD0569F06991D701ED91FC91EF
:101510000190F081E02DC7011995F3CF642F0E944F
:10152000DF09C801DF91CF911F910F91FF90EF90DC
:10153000DF90CF900895CF93DF931F92CDB7DEB7A2
:1015400069832091280A2223F9F02091A80A2032E9
:1015500058F021E030E0FC013383228390E080E00A
:101560000F90DF91CF9108958091A90AE82FF0E0C4
:10157000E75DF54F998190838F5F8093A90A8093EF
:10158000A80A81E090E0ECCF61E0CE0101960E94D4
:10159000DF09F7CF20915D1430915E1428173907C9
:1015A00071F49091E3098091E209981741F0E0917C
:1015B000E309F0E0EE55F64F808190E008958FEF5B
:1015C0009FEF0895EF92FF920F931F93CF93DF93B6
:1015D000DC015C96ED90FC905D97E114F10479F4E8
:1015E00081E090E013969C938E93129790E080E0B8
:1015F000DF91CF911F910F91FF90EF900895519639
:10160000ED91FC91529750968C915097982F909510
:101610000FB75E962C915E97122F127021FD609588
:10162000F8942081112319F1282B2083E7012197B9
:10163000F1F728E0462F50E0308160FF1AC0382BC8
:101640003083E7012197F1F7BA017595679521502D
:1016500089F7112381F08081892380830FBF5C96F5
:101660008D919C910197F1F781E090E0C1CF292302
:10167000DCCF3923E5CF9081892BEFCF20915D140A
:1016800030915E142817390771F48091E209209196
:10169000E30990E0805C9F4F821B910960E470E059
:1016A0000E942851089590E080E00895DC01ED91BA
:1016B000FC91369720813181820F931F84529F4F76
:1016C0000C943E0B20915D1430915E14281739075D
:1016D000B9F49091E3098091E209981789F0E091BB
:1016E000E309F0E0EE55F64F80812091E30930E008
:1016F0002F5F3F4F2F7333272093E30990E0089526
:101700008FEF9FEF0895E0915F14F091601436978A
:1017100080819181855C9A4E0E943E0B18161906B5
:101720009CF4E0915F14F091601436978081918170
:10173000855C9A4E0E94620B18162CF7682F85E084
:101740009FE00E94DD05DFCF0895DC01ED91FC9163
:10175000369720813181820F931F84529F4F0E94C0
:10176000620B0895AF92BF92CF92DF92EF92FF92F9
:101770000F931F93CF93DF937C01EB016A018FE5F9
:1017800094E10E94560B181619063CF064E670E0CE
:1017900080E090E00E945708F2CF10E000E0560190
:1017A00081E0A81AB1088FE594E10E94560B181643
:1017B0001906F4F40A151B05DCF4D701ED91FC9130
:1017C0003697808191818E0D9F1D84529F4F0E947C
:1017D000620B181634F4FE01E00FF11F80830F5FD7
:1017E0001F4F61E070E080E090E00E945708DBCF7F
:1017F000CC0DDD1D21971882C801DF91CF911F917B
:101800000F91FF90EF90DF90CF90BF90AF90089531
:101810008F929F92AF92BF92CF92DF92EF92FF9200
:101820000F931F93CF93DF93EC018C010E521F4F48
:10183000D8019C90992009F46FC0912CF801808107
:10184000813009F05BC08E0104521F4FC8010E9415
:101850003E0B882E9E0129523F4F5901882371F17A
:101860000E948A08D5016D937D938D939C93139765
:101870007E01B1EDEB0EF11C6E01EFECCE0ED11C32
:101880008A94D7018C91883C08F07EC0C8010E94E0
:10189000620BD601ED91FC91119780838D919C9103
:1018A000119701968D939C93D701EC91EF5FEC9388
:1018B000EC0FFD2FF11D12828110E2CF0E948A08E9
:1018C000F5010081118122813381AB01BC01401BF4
:1018D000510B620B730BFE01EB52FF4F8081918124
:1018E000B0E0A0E0481759076A077B0738F0349743
:1018F0008081C80FD11D1A8299249394892DDF917C
:10190000CF911F910F91FF90EF90DF90CF90BF90FC
:10191000AF909F908F90089584529F4F0E943E0BEE
:10192000FE01E952FF4F7F01892B19F50E948A08B9
:10193000D701CD90DD90ED90FC90AB01BC014C192E
:101940005D096E097F09FE01ED52FF4F8081918193
:10195000B0E0A0E0481759076A077B0708F46DCF8D
:101960003297E081EC0FFD2FF11D128284E0982E5A
:1019700065CF0E948A08F701608371838283938315
:1019800081E0D8018C935ACFC8010E94620B94CF9A
:10199000CF93DF93EC01FC01EE52FF4F10823196A2
:1019A000718360833296518340830E948A08FE01CE
:1019B000E952FF4F60837183828393831A82389741
:1019C000CE0102969183808332961082CE010E94CE
:1019D000080C8823D9F3DF91CF910895CF93DF933B
:1019E000EC019A01AB011B8E1A8E198E188E1F8A7C
:1019F0001E8A60E079E08DE390E00E945E51B901BB
:101A0000C90103972430310510F481E090E09D8FE7
:101A10008C8F8C8596EF980F943048F0EEECE80FA1
:101A2000E43028F0E2ECE80FE83008F06DC0F9018E
:101A3000F695E795E431F10508F48EC07397FF8BB6
:101A4000EE8B6630710508F48AC0B90165507109E2
:101A5000798F688FB901660F771F260F371F36956C
:101A60002795369527952D30310508F47BC02C50ED
:101A700031093B8F2A8F943050F02EEC280F243000
:101A800030F022EC280FF0E0E0E0283010F4E8E637
:101A9000F0E02081943028F032EC380F383008F430
:101AA00064C031E0232B943048F09EEC980F9430C2
:101AB00028F08E53F0E0E0E0883010F4E8E6F0E043
:101AC00020832C8536EF320F343008F450C08EEC72
:101AD000820F843008F44BC082EC820F883008F407
:101AE00049C090E080E09C8B8B8B343008F045C07F
:101AF0002650330B81E001C0880F2A95EAF78D8BC1
:101B00008C8D9D8D0197F1F78A8D9B8D892B09F125
:101B1000E0915D14F0915E14CE17DF07D1F030979D
:101B200039F0A389B4899C918589809589238C9308
:101B30008E8D8E7F8E8F1092E2091092E309D093E2
:101B40005E14C0935D14EB89FC8980819D89892B8B
:101B50008083DF91CF910895E1E0F0E070CF61E004
:101B600070E076CF21E030E084CF34E09BCF8BE68D
:101B700090E0B9CF8DE690E0B6CF88E0223309F44B
:101B8000BECF84E0233309F4BACF82E0243309F4D2
:101B9000B6CF82EC820F883018F42E53330BAACFC5
:101BA00081E0ADCF90E080E008950895CF92DF927C
:101BB000EF92FF92CF93DF93CAE0D0E0C12CD12CFB
:101BC000760188E30E941B08092E000CAA0BBB0BB0
:101BD000C80ED91EEA1EFB1E64E170E080E090E0B2
:101BE0000E945708219769F7C701B6010E94614E0C
:101BF0002DEC3CEC4CEC5DE30E94C04E0E948D50FD
:101C00007093DC0A6093DB0A072E000C880B990B9B
:101C10000E94614E2091E50A3091E60A4091E70A60
:101C20005091E80A0E94C04E2AE939E94CE453E495
:101C30000E941B502091E90A3091EA0A4091EB0A78
:101C40005091EC0A0E94AF4FDF91CF91FF90EF903F
:101C5000DF90CF9008958F929F92AF92BF92CF92D4
:101C6000DF92EF92FF92CF93DF93C62F873508F074
:101C700086E5682F70E090E080E00E945F4E20E0F3
:101C800030E048EC52E40E941B5020E030E040EA93
:101C900051E40E94C04E0E948D504B0184E1C82E39
:101CA000D12CC61AD70A61E08C2F0E94EA07D4E132
:101CB000092C000CAA08BB080D2C000CEE08FF082C
:101CC00061E08C2F0E940707C501B4010E945708EC
:101CD00060E08C2F0E940707C701B6010E945708D9
:101CE000D15071F760E08C2FDF91CF91FF90EF9092
:101CF000DF90CF90BF90AF909F908F900C94EA07A9
:101D0000FC01A081B1818C918D3021F03CF489508F
:101D10008230A8F51196B183A083F3CF8032D1F33E
:101D20008F3209F0089511968C9111978A3219F02B
:101D30008F32C1F008951196B183A083A081B18143
:101D4000CD0101969183808311968C911197882300
:101D5000B1F08A3299F712968C9112978F3271F7FF
:101D60001396D9CFA081B181CD0101969183808353
:101D700011968C91882319F08A30A1F7C2CF08956B
:101D80001F93CF93DF93EC01162F0E94800EE88102
:101D9000F9818081181308C03196F983E88381E0C6
:101DA000DF91CF911F91089580E0FACFFC018081EF
:101DB00091818330910540F5019708F441C002807C
:101DC000F381E02D3097E1F1808161E070E08437AC
:101DD00049F18B3279F18D3271F5319691E070E0F5
:101DE00060E04AE0819120ED280F2A3030F5469FCF
:101DF0009001479F300D1124682F880F770B605397
:101E00007109620F731FEECF8530910548F0059779
:101E100059F062817381848195810E948D5002C046
:101E200062817381CB01089562817381719561959F
:101E30007109F8CF319690E0D2CF9111F7CFF2CF60
:101E400070E060E0EFCF0F931F93CF93DF93EC012F
:101E50000C811D8102960E94800EEA81FB818081A7
:101E6000873211F0823261F53196FB83EA83EA8191
:101E7000FB819081992309F445C09F012F5F3F4F5B
:101E80003B832A838917F1F19C3579F49181A3E68C
:101E9000B3E02C91222321F0921310C011969C9153
:101EA000992381F13296FB83EA83EC81FD819F01C6
:101EB0002F5F3F4F3D832C839083D9CF1296E9CF7C
:101EC00080336CF18A3324F08136A4F08B37A4F48C
:101ED0002A813B812F5F3F4F3B832A83EC81FD8129
:101EE0009F012F5F3F4F3D832C838083EA81FB81DD
:101EF0008081E6CF81349CF08B3554F393ED980FBD
:101F0000923030F3EC81FD81CF0101969D838C836B
:101F10001082C801DF91CF911F910F9108958B32EC
:101F200069F7D6CFFC0186819781680F791F2481DC
:101F300035812617370738F022813381820F931FAE
:101F400077836683089590E080E008958091FC0790
:101F500081110BC01092F9071092F8071092FB073D
:101F60001092FA0781E08093FC0788EF97E00895CC
:101F70008091F00781110BC01092ED071092EC07D1
:101F80001092EF071092EE0781E08093F0078CEE3D
:101F900097E00895DB01109749F0ED91FC911197BE
:101FA0000190F081E02DBC01CD01199490E080E01A
:101FB00008954F925F926F927F928F929F92AF920D
:101FC000BF92CF92DF92EF92FF920F931F93CF9326
:101FD000DF9300D000D01F92CDB7DEB78C0181E037
:101FE0008093280A88E68093490A1092A90A1092E1
:101FF000A80A60E08EEA9FE00E949B0AF090A80A7F
:1020000030E23F1508F491C00E9432084B015C0198
:102010008091700A811164C082E08093700A81E02F
:1020200080936F0A8FEF80936E0A10926D0AF09280
:102030006C0AA9E2BAE0EAE4FAE080E0F812E9C04A
:1020400010926B0A80916B0A806D80936B0A80916D
:102050006A0A813009F0E1C010926A0A0E943208CF
:102060006B017C0180916B0A8093BB008091720AA6
:102070009091730AA091740AB091750A892B8A2BEA
:102080008B2B99F00E9432088090720A9090730A0C
:10209000A090740AB090750A6C197D098E099F0989
:1020A00086169706A806B906E0F18091BC0083FD6C
:1020B000D9CF85EC8093BC000E9432086B017C0173
:1020C0008091700A823009F4AAC080916E0A8F3F15
:1020D00061F180916E0A803241F180916E0A25C0D3
:1020E0008091720A9091730AA091740AB091750A56
:1020F000892B8A2B8B2B09F48BCF0E9432084090BE
:10210000720A5090730A6090740A7090750A681988
:1021100079098A099B09461657066806790608F068
:1021200077CF8091710A0E94240A1092A90A109216
:10213000A80A1092280A0E9432086B017C01809143
:10214000700A81118EC081E08093700A80936F0ABB
:102150009FEF90936E0A10926D0A96E090936C0A2E
:1021600080936B0A80916B0A806D80936B0A8091DB
:102170006A0A813009F0F1C010926A0A0E9432089E
:102180006B017C0180916B0A8093BB008091720A85
:102190009091730AA091740AB091750A892B8A2BC9
:1021A0008B2BA1F00E9432088090720A9090730AE3
:1021B000A090740AB090750A6C197D098E099F0968
:1021C00086169706A806B90608F46CC08091BC0074
:1021D00083FDD8CF85EC8093BC000E9432086B0150
:1021E0007C018091700A813009F4B9C080916D0A38
:1021F000873008F0D6C080916D0AEAE4FAE0A6E7DD
:10220000BAE090E0981709F452C021912D939F5F96
:10221000F9CF9D9191938F5F11CF85EE4BCF809138
:10222000720A9091730AA091740AB091750A892B71
:102230008A2B8B2B09F444CF0E9432088090720ABB
:102240009090730AA090740AB090750A6C197D0979
:102250008E099F0986169706A806B90608F030CFA2
:1022600060CF8091720A9091730AA091740AB09124
:10227000750A892B8A2B8B2B09F461CF0E943208B7
:102280008090720A9090730AA090740AB090750AB8
:102290006C197D098E099F0986169706A806B9064E
:1022A00008F04DCF8091710A0E94240A80E01092BC
:1022B000AB0A8093AA0ACE0101966C01F12CE12CA5
:1022C0008AE0B82E8EEA9FE00E94540A282F2295B9
:1022D0002F70982F9F70E5E0FE1265C021702B9D36
:1022E000900D11249E83E82EEE1CEE24EE1CF39438
:1022F000FFEFCF1ADF0A37E0F312E4CF2F81822FEE
:1023000090E0E1E0EE1255C08053984F3981F8011A
:1023100030833A8131833B8132833D8133833E81F7
:102320003483968385838C818783228727960FB693
:10233000F894DEBF0FBECDBFDF91CF911F910F91FB
:10234000FF90EF90DF90CF90BF90AF909F908F90D5
:102350007F906F905F904F90089585EE3CCF809175
:10236000720A9091730AA091740AB091750A892B30
:102370008A2B8B2B09F435CF0E9432088090720A89
:102380009090730AA090740AB090750A6C197D0938
:102390008E099F0986169706A806B90608F021CF70
:1023A00081CF87E02ACF2B9D900D1124F6019083D9
:1023B0009ECF8459984FAACF2F923F924F925F920F
:1023C0006F927F928F929F92AF92BF92CF92DF9245
:1023D000EF92FF920F931F93CF93DF93CDB7DEB7AA
:1023E0002D970FB6F894DEBF0FBECDBFCE0101967C
:1023F0000E94D90F89818C872A803B809C819D8790
:102400008D801E81125BA12FB0E020E833E341EE06
:1024100051E00E94944F2B013C01E2EBF7E09D015B
:1024200004E610E080E9E82EFF24F394CF01825BFC
:1024300097408217930794F12E54384FC90164E6F0
:1024400070E00E9428517C01C90160E971E00E949E
:1024500028516C010AE912E0E1E0F0E0912C590109
:10246000A3E0AA22BB24E815F9050CF040C0E23035
:10247000F10571F5A114B10459F5E114F10419F451
:10248000C114D10429F580E8480E8BE3581E86E27A
:10249000681E711C31960F5F1F4FE5CFCF0183700F
:1024A0009927892B99F4CF01B8010E942851892BD3
:1024B00031F4CF01B7010E942851892B39F4B0E8DB
:1024C0004B0EB1E55B1EB1E06B1E711C3196AECFB9
:1024D000D8018C91A82FB0E020E831E541E050E030
:1024E0000E94944F460E571E681E791ED3CF232D8F
:1024F00030E0A0E1BEE00E949F4F6B017C01222DE5
:1025000030E0ACE3B0E00E949F4FC60ED71EE81E3D
:10251000F91EBC85CB0ED11CE11CF11C8D858150B0
:10252000990BDC0120E831E541E050E00E948C513C
:102530006C0D7D1D8E1D9F1D640D751D861D971DC7
:102540002D960FB6F894DEBF0FBECDBFDF91CF91B1
:102550001F910F91FF90EF90DF90CF90BF90AF90C1
:102560009F908F907F906F905F904F903F902F90B3
:102570000895CF93DF93EC01A881B981EB01E88145
:10258000F9811097F1F03097B1F4EC018C819D81C5
:10259000892BC9F08C9190E00BC0DB0114968D91D2
:1025A0009C91892B81F0808190E091958195910992
:1025B000DF91CF910895BF01CD01DF91CF910C94B0
:1025C000C253309751F790E080E0F2CF0F931F9302
:1025D000CF93DF938B01FC01C281D381209759F007
:1025E0006A817B81C8010E94C253892B21F0099026
:1025F000D881C02DF3CFCE01DF91CF911F910F91E4
:1026000008950E94E61208956EE673E00E94011399
:10261000009749F0FC01248135812630310519F4F9
:102620008681978108950C94B80FFF920F931F93A2
:10263000CF93DF930E940113FC01892B09F4B9C0E9
:10264000848195818330910508F03FC0019708F49B
:10265000B0C0C681D781209709F4ABC088818B3286
:1026600009F451C08D3209F04FC0219611E08881E4
:10267000843709F4F4C08F7D8E3409F4F5C08934B1
:1026800009F4A2C0F12C20E030E0A901FE0109917B
:1026900080ED800F8A30E0F52C3C8CEC38078CE024
:1026A000480751059CF5AAE0B0E00E94944F202F06
:1026B000000F330B20533109032E000C440B550B34
:1026C000260F371F481F591FE1CF8530910538F07D
:1026D000059789F0668177818085918506C066813E
:1026E0007781808591850E945F4EDF91CF911F9108
:1026F0000F91FF90089566817781808591850E9472
:102700005F4E9058F2CF219610E0B1CFF394BECF38
:102710000E3211F5EF012196FE01099180ED800F37
:102720008A30D0F42C3C8CEC38078CE048075105FB
:102730009CF7AAE0B0E00E94944F202F000F330BCB
:1027400020533109032E000C440B550B260F371F65
:10275000481F591FFA94E0CF80818F7DCF2DFF0C49
:10276000DD0B853409F060C081818D3231F5329600
:1027700071E090E080E00AE06191A0EDA60FAA3040
:1027800070F5089FD001099FB00D1124862F660FA8
:10279000990BC0978A0F9B1FDC01AC0FBD1F979749
:1027A0005CF3772389F060E070E080E090E811113D
:1027B0009CCF60E070E0CB0198CF8B3219F031965E
:1027C00070E0D7CF3296FCCF60E070E080E89FEFFA
:1027D00011118BCF60E070E080E89FE786CF772310
:1027E00019F0919581959109C80FD91FCA01B901B6
:1027F0000E94614E1C161D06D4F400E0C0FF0CC000
:1028000024E0029FF0011124EA52FD4F2081318122
:10281000428153810E94C04ED595C7950F5F209786
:1028200069F711116ECF61CF90E080E0DDCFD195D7
:10283000C195D10900E02097A1F3C0FF0CC024E0AE
:10284000029FF0011124E254FD4F20813181428129
:1028500053810E94C04ED595C7950F5FECCF60E0C5
:1028600070E080E89FE341CF60E070E080EC9FE79C
:102870003CCF0F931F93CF938B01FC016281738137
:10288000808191810E9415139B01AC01C1E0F80188
:1028900060817181828193810E945A4E8111C0E0D2
:1028A0008C2FCF911F910F9108950E9401130097D3
:1028B00031F004960E94D60E21E0892B09F420E025
:1028C000822F08950E940113009749F0FC01248192
:1028D00035812730310519F48681978108950C944C
:1028E000A60F0E940113009719F004960C94D60EBF
:1028F00090E080E00895CF93DF93CDB7DEB72C97BB
:102900000FB6F894DEBF0FBECDBF0E940113FC01CD
:10291000892B11F196E03496DE01119601900D920B
:102920009A95E1F786E0FE013196DE011796019057
:102930000D928A95E1F72F81388549855A856B85F7
:102940007C8580E090E02C960FB6F894DEBF0FBE39
:10295000CDBFDF91CF91089518861F82ECCFAF9243
:10296000BF92CF92DF92EF92FF920F931F93CF937C
:10297000DF9300D000D0CDB7DEB76C01DC01ED9065
:10298000FC90B70184E090E00E94CA0F8C01009790
:1029900009F486C0FC01F182E08213821282760182
:1029A000F2E0EF0EF11C6BE7C7010E94C00E882316
:1029B00009F461C06DE7C7010E94C00E81115EC0BD
:1029C000C6010E94230F5C01892B09F454C06AE3FD
:1029D000C7010E94C00E882309F44DC01A821982D3
:1029E000BE016F5F7F4FC6010E945415882309F412
:1029F00042C0B501C8010E94E612009739F5D8011E
:102A00006D917C918AE090E00E94CA0F009729F0B6
:102A1000FC011182108215821482D8011296ED9168
:102A2000FC91309729F4F8019383828308C0F9015F
:102A30002081318121153105D1F791838083009761
:102A4000D1F0DC011396BC92AE92129726E0FE0103
:102A50003196DC01149601900D922A95E1F76DE70D
:102A6000C7010E94C00E811109C06CE2C7010E941B
:102A7000C00E8111A5CF0E94A60F8C01C801269619
:102A80000FB6F894DEBF0FBECDBFDF91CF911F917F
:102A90000F91FF90EF90DF90CF90BF90AF9008958F
:102AA0000E94A60F8C017BCF8F929F92AF92BF9214
:102AB000CF92DF92EF92FF920F931F93CF93DF930A
:102AC00000D000D0CDB7DEB7FC019681F12C992360
:102AD00009F4A5C06B018F01915096835F0182E0DC
:102AE000A80EB11CC5010E94800ED8011296ED916E
:102AF000FC9180818B3501F18B3709F4AEC0FF2446
:102B0000F394873219F0823209F0F12CC8010E9447
:102B1000230F009709F47BC021E030E0FF2009F487
:102B2000A6C022E030E0D60111963C932E93139676
:102B30009C938E9312976CC0F80180809180B401B1
:102B400084E090E00E94CA0F7C01009709F495C0D0
:102B5000DC0111969C928E9213961C921E921297F3
:102B60006BE5C5010E94C00E882309F448C06DE5DD
:102B7000C5010E94C00E811145C01A821982BE0192
:102B80006F5F7F4FC8010E9454158823C1F1F70180
:102B90006081718188E090E00E94CA0FDC01892B7E
:102BA00039F011961C921E9213961C921E92129747
:102BB000F701228133812115310521F4B383A283EA
:102BC00008C09C01F901808191810097D1F7B18300
:102BD000A0831097A1F086E0FE0131961296019035
:102BE0000D928A95E1F76DE5C5010E94C00E811135
:102BF00009C06CE2C5010E94C00E8111BECF0E94C7
:102C0000B80F7C01D7018D919C91892BE1F4F12CB7
:102C1000D80116968C9116978F5F16968C938F2DF0
:102C200026960FB6F894DEBF0FBECDBFDF91CF91D1
:102C30001F910F91FF90EF90DF90CF90BF90AF90DA
:102C40009F908F90089586E090E0F60191838083B5
:102C5000F382E282FF24F394DBCFC8010E94AF1419
:102C6000DC012D913C91232B91F227E030E0F6011D
:102C70003183208393838283EDCF0E94B80F7C0140
:102C80006FCF0F931F93CF93DF938C01FC01C08113
:102C9000D181C130D10559F462817381611571050B
:102CA00031F084E793E00E94C253892B59F02197B9
:102CB000229740F4F80182819381DF91CF911F9197
:102CC0000F91089590E080E0F8CF0F931F93CF937A
:102CD000DF9308E31EE0D0E0C0E0F80161918F01CE
:102CE000CE010E94864F2196C033D105B1F780E313
:102CF00090E0DF91CF911F910F91089563E580E4FB
:102D000090E00E94864F67E581E490E00E94864F44
:102D100060E082E490E00E94864F83E090E00895B6
:102D2000CF93DF93EC0168818EE390E00E94864FA1
:102D300069818FE390E00E94864F82E090E0DF910E
:102D4000CF910895CF93DF93EC018EE390E00E9442
:102D50007E4F888381E090E0DF91CF910895FB0161
:102D600001900020E9F73197AF01461B570BDC01BA
:102D7000ED91FC910280F381E02D1994CF93DF93C4
:102D8000FC01448155816081718185E09FE00E9452
:102D90003D05EC0160EF74E085E09FE00E94AF1616
:102DA0008C0F9D1FDF91CF9108958F929F92AF92CC
:102DB000BF92EF92FF920F931F93CF93DF93CDB704
:102DC000DEB7A1970FB6F894DEBF0FBECDBF7C0172
:102DD000FA01CB0119A2223008F42AE08E010F5D1E
:102DE0001F4F822E912CB12CA12CBF01A501940163
:102DF0000E943C51F901CA016A300CF5605DD801AE
:102E00006E938D01232B242B252B79F790E080E006
:102E1000109721F0BD01C7010E94AF16A1960FB611
:102E2000F894DEBF0FBECDBFDF91CF911F910F9100
:102E3000FF90EF90BF90AF909F908F900895695C46
:102E4000DECFCF92DF92EF92FF920F931F93CF933B
:102E5000DF9377FF21C06A017B01EC01E881F981F2
:102E60000190F081E02D6DE219958C0144275527E2
:102E7000BA014C195D096E097F092AE0CE010E9452
:102E8000D516800F911FDF91CF911F910F91FF9069
:102E9000EF90DF90CF9008952AE0DF91CF911F91BE
:102EA0000F91FF90EF90DF90CF900C94D5160F9379
:102EB0001F93CF93DF93EC01AB01770F660B770B7A
:102EC0000E9421178C0160EF74E0CE010E94AF16C2
:102ED000800F911FDF91CF911F910F910895E09185
:102EE0005F14F0916014369720813181BC01C901D3
:102EF000855C9A4E0C9457174F925F926F927F9217
:102F00008F929F92AF92BF92CF92DF92EF92FF92F9
:102F10000F931F93CF936B017C01742EAC019B0127
:102F20000E940E5169E773E0811126C046015701E6
:102F3000E894B7F82FEF3FEF4FE75FE7C501B40123
:102F40000E940E5181110CC02FEF3FEF4FE75FE75A
:102F5000C501B4010E945A4E6DE773E0181664F083
:102F60002FEF3FEF4FE75FE4C701B6010E94C35068
:102F70001816ACF461E873E085E09FE0CF911F91F3
:102F80000F91FF90EF90DF90CF90BF90AF909F9008
:102F90008F907F906F905F904F900C94AF162FEFB3
:102FA0003FEF4FE75FECC701B6010E945A4E87FD25
:102FB000E1CF20E030E0A901C701B6010E945A4EDE
:102FC00010E000E087FF0AC06DE285E09FE00E940C
:102FD000DD058C01F7FAF094F7F8F094C0E060E0BA
:102FE00070E080E09FE37C1641F020E030E040E2BA
:102FF00051E40E941B50CF5FF6CFA70196010E94BB
:10300000AF4F2B013C010E9494504B015C012AE020
:10301000BC01A40185E09FE00E94D5167C01E00E72
:10302000F11ECC23D1F1C501B4010E945F4E9B017A
:10303000AC01C301B2010E94AE4F4B015C016EE2D4
:1030400085E09FE00E94DD05E80EF91EC15028F1E1
:1030500020E030E040E251E4C501B4010E94C04EDE
:103060002B013C010E9494504B01B12CA12C2AE071
:10307000B501A40185E09FE00E94D516E80EF91E77
:10308000C501B4010E945F4E9B01AC01C301B201B6
:103090000E94AE4F4B015C01D9CFC701CF911F9168
:1030A0000F91FF90EF90DF90CF90BF90AF909F90E7
:1030B0008F907F906F905F904F90089542E00C94B6
:1030C0007C17CF93DF9342E00E947C17EC0160EF06
:1030D00074E085E09FE00E94AF168C0F9D1FDF918A
:1030E000CF9108950F931F93CF93DF938C01D0E07E
:1030F000C0E06115710519F00E94AF16EC0160EF98
:1031000074E0C8010E94AF168C0F9D1FDF91CF9114
:103110001F910F910895E0915F14F091601436971C
:1031200020813181BC01C901855C9A4E0C947218D2
:103130000F931F93CF93DF93EC010E9419058C012D
:1031400060EF74E0CE010E94AF16800F911FDF91F7
:10315000CF911F910F9108956115710511F00C9495
:10316000AF1690E080E00895E0915F14F091601454
:10317000369720813181BC01C901855C9A4E0C943F
:10318000AC184F925F926F927F928F929F92AF9204
:10319000BF92CF92DF92EF92FF92CF93DF9300D056
:1031A00000D01F921F92CDB7DEB76D837E838F83D1
:1031B00098870E94D60D6093DD0A7093DE0A809393
:1031C000DF0A9093E00A2D813E814F8158850E944D
:1031D000AE4F6B017C018090770290907802A090B6
:1031E0007902B0907A022FE832EC45EF5DEB0E9455
:1031F000C350181654F42FE832EC45EF5DE3C701D5
:10320000B6010E945A4E87FD0CC14090D70A5090DB
:10321000D80A6090D90A7090DA0A20E030E040E4E1
:1032200050E46091ED0A7091EE0A8091EF0A90915E
:10323000F00A0E94C04E69837A838B839C83A3012A
:103240009201C701B6010E94AE4F9B01AC0169819A
:103250007A818B819C810E94C04EA50194010E94BD
:10326000AF4F69837A838B839C836091F10A70915D
:10327000F20A8091F30A9091F40A9B01AC010E943A
:10328000AF4FA70196010E94C04E9B01AC0169811E
:103290007A818B819C810E94AF4F69837A838B8373
:1032A0009C83A3019201C301B2010E94AF4F9B0115
:1032B000AC01C701B6010E94AE4F2091D30A3091F4
:1032C000D40A4091D50A5091D60A0E94AF4F20915E
:1032D000F50A3091F60A4091F70A5091F80A0E94D7
:1032E000C04E9B01AC0169817A818B819C810E94D7
:1032F000AF4F609377027093780280937902909336
:103300007A024092D30A5092D40A6092D50A7092FF
:10331000D60AC092D70AD092D80AE092D90AF0927F
:10332000DA0AA50194010E94AE4F20E030E040E2AD
:1033300051E40E94C350181684F420E030E040E2CB
:1033400051E4C501B4010E94AF4F609377027093BE
:1033500078028093790290937A02209177023091DB
:1033600078024091790250917A02C501B4010E941D
:10337000AE4F20E030E040E251E40E94C350181606
:1033800084F420E030E040E251E4C501B4010E9441
:10339000AE4F609377027093780280937902909396
:1033A0007A0220E030E04CEA52E4609177027091BA
:1033B00078028091790290917A020E94C350181687
:1033C00064F480E090E0ACEAB2E4809377029093FA
:1033D0007802A0937902B0937A0220E030E040E8CE
:1033E00051E4609177027091780280917902909116
:1033F0007A020E945A4E87FF0CC080E090E0A0E85D
:10340000B1E48093770290937802A0937902B0930D
:103410007A028090770290907802A0907902B09022
:103420007A02C501B4010E948D50862F60937B0201
:1034300070937C0265E00E942B0E68E277E085E0E5
:103440009FE00E9498186BE177E085E09FE00E9482
:1034500019052AE045E050E060E070E085E09FE07B
:103460000E94D51660EF74E085E09FE00E94AF16E1
:103470006DE077E085E09FE00E9419056D817E8117
:103480008F8198850E945E186FEF76E085E09FE05F
:103490000E9419056091DD0A7091DE0A8091DF0AB1
:1034A0009091E00A0E945E1864EF76E085E09FE06C
:1034B0000E941905C701B6010E94611865E873E012
:1034C00085E09FE00E94AC186091ED0A7091EE0AD1
:1034D0008091EF0A9091F00A0E945E186DEE76E0FE
:1034E00085E09FE00E9419056091F10A7091F20A4F
:1034F0008091F30A9091F40A0E945E186BE873E0E1
:1035000085E09FE00E94AC186091F50A7091F60A80
:103510008091F70A9091F80A0E9461186FED76E0A9
:1035200085E09FE00E94190560917B0270917C020A
:10353000072E000C880B990B0E94614E2FE832EC8D
:1035400045E75EE30E94C04E28EB3EE145E05EE3C6
:103550000E94AF4F0E945E1862E973E085E09FE031
:103560000E94AC1840917B0250917C02052E000C09
:10357000660B770B85E09FE00E94211768E973E0F6
:1035800085E09FE00E94721860EC76E085E09FE0A5
:1035900028960FB6F894DEBF0FBECDBFDF91CF9156
:1035A000FF90EF90DF90CF90BF90AF909F908F9063
:1035B0007F906F905F904F900C9498184F925F920D
:1035C0006F927F928F929F92AF92BF92CF92DF9233
:1035D000EF92FF92CF93DF9300D01F921F92CDB74F
:1035E000DEB78D83CB01BA012091AE0A3091AF0ACC
:1035F0004091B00A5091B10A0E94AE4F6B017C011C
:103600002AE037ED43EA5CEB0E94C350181654F4ED
:103610002AE037ED43EA5CE3C701B6010E945A4E47
:1036200087FD70C28090070290900802A090090266
:10363000B0900A0220919E0930919F094091A00903
:103640005091A10929833A834B835C8320E030E0C9
:1036500040E450E46091BE0A7091BF0A8091C00AB4
:103660009091C10A0E94C04E2B013C0129813A81F0
:103670004B815C81C701B6010E94AE4F9B01AC013A
:10368000C301B2010E94C04EA50194010E94AF4F38
:103690002B013C016091C20A7091C30A8091C40A57
:1036A0009091C50A9B01AC010E94AF4FA701960102
:1036B0000E94C04E9B01AC01C301B2010E94AF4FFA
:1036C0002B013C0129813A814B815C81CA01B901FE
:1036D0000E94AF4F9B01AC01C701B6010E94AE4FE3
:1036E00020919A0930919B0940919C0950919D0924
:1036F0000E94AF4F2091C60A3091C70A4091C80A74
:103700005091C90A0E94C04E9B01AC01C301B20195
:103710000E94AF4F609307027093080280930902E2
:1037200090930A0229813A814B815C8120939A0906
:1037300030939B0940939C0950939D09C0929E0928
:10374000D0929F09E092A009F092A109A5019401ED
:103750000E94AE4F20E030E040E251E40E94C350AE
:10376000181684F420E030E040E251E4C501B401D1
:103770000E94AF4F60930702709308028093090282
:1037800090930A02209107023091080240910902A9
:1037900050910A02C501B4010E94AE4F20E030E012
:1037A00040E251E40E94C350181684F420E030E057
:1037B00040E251E4C501B4010E94AE4F609307029C
:1037C000709308028093090290930A0220E030E08F
:1037D0004CEA52E46091070270910802809109025C
:1037E00090910A020E94C350181664F480E090E0A1
:1037F000ACEAB2E48093070290930802A093090216
:10380000B0930A0220E030E040E851E46091070202
:10381000709108028091090290910A020E945A4E0A
:1038200087FF0CC080E090E0A0E8B1E4809307023D
:1038300090930802A0930902B0930A023D813330AD
:1038400009F045C120910702309108024091090218
:1038500050910A026091CE0A7091CF0A8091D00AED
:103860009091D10A0E94C04E0E949450862F63E02E
:103870000E942B0E63E374E085E09FE00E9498189D
:1038800069E274E085E09FE00E9419056091AE0A4C
:103890007091AF0A8091B00A9091B10A0E945E18AF
:1038A0006FE174E085E09FE00E9419056091BA0A1B
:1038B0007091BB0A8091BC0A9091BD0A0E945E186B
:1038C00066E174E085E09FE00E9419052091AE0A50
:1038D0003091AF0A4091B00A5091B10A6091BA0A92
:1038E0007091BB0A8091BC0A9091BD0A0E94AE4FB4
:1038F0000E94611861E174E085E09FE00E94190573
:103900006091B20A7091B30A8091B40A9091B50A9D
:103910000E945E186AE074E085E09FE00E9419054D
:103920006091B60A7091B70A8091B80A9091B90A6D
:103930000E945E186BE973E085E09FE00E94AC187E
:103940006091BE0A7091BF0A8091C00A9091C10A2D
:103950000E945E1861EA73E085E09FE00E94AC1867
:103960006091C20A7091C30A8091C40A9091C50AFD
:103970000E945E1867EA73E085E09FE00E94AC1841
:103980006091C60A7091C70A8091C80A9091C90ACD
:103990000E9461186CEF73E085E09FE00E941905BA
:1039A0002FE832EC45E75EE3609107027091080270
:1039B0008091090290910A020E94C04E28EB3EE1DC
:1039C00045E05EE30E94AF4F0E945E1862E973E03B
:1039D00085E09FE00E94AC18609107027091080298
:1039E0008091090290910A020E945E1868E973E0D2
:1039F00085E09FE00E94AC1863EF73E085E09FE0F4
:103A00000E9419052FE832EC45E75EE3609107025A
:103A1000709108028091090290910A020E94C04EA2
:103A200028EB3EE145E05EE30E94AF4F2091CE0AD5
:103A30003091CF0A4091D00A5091D10A0E94C04ED5
:103A40000E945E186DEA73E085E09FE00E94AC186A
:103A50002FE832EC45E75EE36091070270910802BF
:103A60008091090290910A020E94C04E28EB3EE12B
:103A700045E05EE30E94AF4F2091CA0A3091CB0A25
:103A80004091CC0A5091CD0A0E94C04E0E945E180F
:103A900069EB73E085E09FE00E94721869EC73E0C7
:103AA00085E09FE00F900F900F900F900F90DF91A7
:103AB000CF91FF90EF90DF90CF90BF90AF909F900D
:103AC0008F907F906F905F904F900C9498184D81DD
:103AD000463009F0CFCE2091070230910802409184
:103AE000090250910A026091CA0A7091CB0A809132
:103AF000CC0A9091CD0A0E94C04E0E949450862F0D
:103B000066E0B6CE0F900F900F900F900F90DF9160
:103B1000CF91FF90EF90DF90CF90BF90AF909F90AC
:103B20008F907F906F905F904F900895CF93DF9329
:103B3000DC0114962D913C911597232B79F0FB0114
:103B4000CD91DC9160817181CE010E94EF5300978D
:103B500029F08C1B9D0BDF91CF9108958FEF9FEF84
:103B6000FACFFC01EF52FF4F2081222339F0029659
:103B70000E94EF5321E0892B09F420E0822F089561
:103B8000CF93DF93EA01109233159093351580930C
:103B9000341570933715609336150E948A08609328
:103BA00038157093391580933A1590933B15109200
:103BB000631483E694E1909331158093301510924D
:103BC000321581E694E10E94080C8823D1F38130FC
:103BD00059F4BE0181E694E10E94B11D811106C035
:103BE00083E0DF91CF91089584E0FBCF82E0F9CFAD
:103BF000EF92FF920F931F93CF93DF937C018B0182
:103C0000EA0168E873E180E090E00E94570842E32F
:103C100050E062E370E081E694E10E94C80C8DEB15
:103C200093E00E948B1846EC53E062E370E088E872
:103C300093E10E94C01D823039F18CEC93E00E9428
:103C40008B1846EC53E062E370E088E893E10E9451
:103C5000C01D60ED77E080E090E00E94570888ED9D
:103C600093E00E948B1846EC53E062E370E088E832
:103C700093E10E94C01D81E090E0DF91CF911F9100
:103C80000F91FF90EF90089587EE93E00E948B18BC
:103C900042EF53E062E370E084EF91E00E94C01DC8
:103CA0008350823018F490E080E0E7CF68EE73E054
:103CB00080E090E00E9457088AEF93E00E94B418D9
:103CC000C7010E94B41880E694E00E94B418C801AD
:103CD0000E94B41880E694E00E94B418CE010E94BD
:103CE000B41884E094E00E94B41848EF54E062E312
:103CF00070E084EF91E00E94C01D8350823098F202
:103D000068E873E180E090E00E94570887E094E063
:103D10000E948B1848EF54E062E370E080E197E284
:103D20000E94C01D8350823008F4BDCF68EE73E05E
:103D300080E090E00E9457088DEB93E00E948B1882
:103D400046EC53E062E370E088E893E10E94C01D16
:103D5000823009F4A8CF83E090E090932D158093F2
:103D60002C1589CFCF93882371F190912E15911145
:103D70002CC0C82F81E080932E15E0915F14F09144
:103D8000601436978081918163EB78E0855C9A4E70
:103D90000E9419058C2F90E00E946F1748EF54E0A5
:103DA00062E370E088E893E10E94C01D823039F040
:103DB000843039F48EEF10922E15CF91089581E062
:103DC000FACF80E0F8CF8DEFF8CF8FEFF6CFEF92FC
:103DD000FF920F931F93CF93DF931F921F92CDB744
:103DE000DEB77C018B01FB0101900020E9F73197E0
:103DF000E61BF70BE03AF10530F065E878E085E086
:103E00009FE00E9498188AE189831A82E0915F14EA
:103E1000F09160143697808191816BE778E0855C42
:103E20009A4E0E941905C7010E94B41882E694E0D8
:103E30000E948B1840E154E064EF71E088EE93E05B
:103E40000E94C01D823089F4C8010E94B418CE01BE
:103E500001960E948B1842E154E068E873E188E51E
:103E60009BE10E94C01D823061F08FEF10922E15F1
:103E70000F900F90DF91CF911F910F91FF90EF90D6
:103E8000089581E0F3CFCF9380912E15CFEF81116C
:103E900065C081E080932E15E0915F14F09160146D
:103EA0003697808191816CEB78E0855C9A4E0E9418
:103EB00098181092331588E893E190933515809304
:103EC00034158CED95E090933715809336150E944C
:103ED0008A08609338157093391580933A1590933A
:103EE0003B151092631483E694E19093311580930F
:103EF00030151092321568EF74E081E694E10E946B
:103F0000B11D81110DC081E694E10E94080C882347
:103F100091F3813029F0CEEF8430F1F0C0E01CC085
:103F200068E174E081E694E10E94B11D8823C9F044
:103F30006AE370E083E694E10E94B753009789F04A
:103F400001960E94834BC82F44E150E064E170E089
:103F500081E694E10E94C80C10922E158C2FCF910F
:103F60000895C0E0F1CFEF92FF920F931F93CF938C
:103F7000DF93EC0100E07C018CEDE80EF11C6FE1B9
:103F800074E0C7010E94721844E650E064EF71E0EB
:103F9000CE010E94C80C1FEF813041F468EF74E03D
:103FA000CE010E94B11D81111AC010E00F5F0530D3
:103FB00079F448E853E168EE73E0CE010E94C80C42
:103FC000812FDF91CF911F910F91FF90EF90089576
:103FD00064EF71E080E090E00E945708D0CF11E0DC
:103FE000E8CF6F927F928F929F92AF92BF92CF92C3
:103FF000DF92EF92FF920F931F93CF93DF93EC0129
:104000006B015A013901F12C4C018CED880E911C89
:10401000B601C4010E949818A301B501CE010E9407
:10402000C80C8130F9F4B801CE010E94B11D811194
:104030001BC0F394EF100FC0DF91CF911F910F9130
:10404000FF90EF90DF90CF90BF90AF909F908F90B8
:104050007F906F90089564EF71E080E090E00E949F
:104060005708D6CF8FEFE5CF81E0E6CF2F923F9272
:104070004F925F926F927F928F929F92AF92BF9278
:10408000CF92DF92EF92FF920F931F93CF93DF9324
:1040900000D01F92CDB7DEB76C012A013B0161E071
:1040A00086E00E94EA0761E087E00E94EA07411487
:1040B00082EC580681E06806710461F461EC75E0F9
:1040C00085E09FE00E94981840E8442E45E2542E77
:1040D000612C712C56019DECA90EB11C81E0F501FB
:1040E0008083C60184529F4F9C838B83B301A201BE
:1040F0000E94EE0C760192E0E90EF11C4601EFEC15
:104100008E0E911CF401F182E082C60185539F4F0F
:104110009A83898381E090E0E981FA8191838083A9
:1041200003E010E0C6010E94B31F8F3FA1F461E0DD
:1041300086E00E94070760EB74E080E090E00E9458
:10414000570860E086E00E94070760E177E280E0C0
:1041500090E00E94570848EE53E068EE73E0C60115
:104160000E94C80C01501109E9F6C6010E94B31F54
:1041700033243394212C813019F0312C22242394C0
:10418000C6010E94B31F81115CC03110A0C110E0B4
:1041900000E0F801319740EB54E060E070E0E73078
:1041A000F10588F48827E852FF4D8F4F0C947D511C
:1041B000DF20402145214A214F215421592140E649
:1041C00059E060E070E08B819C810E94EE0C64E617
:1041D00070E080E090E00E945708C6010E94B31F83
:1041E000813009F06BC062E274E08B819C810E9497
:1041F000AC18B301A2018B819C810E94211765E05C
:1042000074E08B819C810E94AC1864EF71E080E0C7
:1042100090E00E945708B301A2018B819C810E940B
:10422000EE0C64E670E080E090E00E945708C60162
:104230000E94B31F33243394F5011082F401F182FC
:10424000E082222009F4F3C1311041C16AE975E02E
:1042500085E09FE00E94981810E000E0F801319797
:10426000E730F10590F58827E75CFE4D8F4F0C9401
:104270007D51C621DD21F4210B2222223922502238
:1042800040EC52E160E070E09ECF40E855E260E033
:1042900070E099CF40E05BE460E070E094CF40E0F4
:1042A00056E960E070E08FCF40E051EE60E070E0F2
:1042B0008ACF40E052EC61E070E085CF0F5F1F4F86
:1042C0000830110509F065CFB7CF40EB54E060E04E
:1042D00070E08B819C810E94EE0C68EE73E080E0C0
:1042E00090E00E94570865E975E085E09FE00E9434
:1042F000981868E875E08B819C810E94190568EE2A
:1043000073E080E090E00E94570840E855E260E0EA
:1043100070E08B819C810E94EE0C68EE73E080E07F
:1043200090E00E945708C6010E94B31F68EE73E038
:1043300080E090E00E94570848EE53E068EE73E09A
:10434000C6010E94C80C0F5F1F4F0830110509F00D
:1043500085CF60EC74E085E09FE00E94981861E0F2
:1043600086E00E94070760EB74E080E090E00E9426
:10437000570860E086E00E94070760E177E280E08E
:1043800090E00E94570890E080E03AC140E659E092
:1043900060E070E08B819C810E94EE0C68EE73E01F
:1043A00080E090E00E94570863E875E085E09FE0B8
:1043B0000E94981866E775E09ECF40EC52E160E0FD
:1043C00070E08B819C810E94EE0C68EE73E080E0CF
:1043D00090E00E94570861E775E085E09FE00E9449
:1043E000981864E675E087CF40E855E260E070E039
:1043F0008B819C810E94EE0C68EE73E080E090E07F
:104400000E9457086FE575E085E09FE00E949818CC
:1044100062E575E070CF40E05BE460E070E08B81C6
:104420009C810E94EE0C68EE73E080E090E00E94B8
:1044300057086CE475E085E09FE00E9498186FE3F0
:1044400075E059CF40E056E960E070E08B819C81D7
:104450000E94EE0C68EE73E080E090E00E94570846
:1044600069E375E085E09FE00E9498186CE275E0D2
:1044700042CF40E051EE60E070E08B819C810E9471
:10448000EE0C68EE73E080E090E00E94570866E270
:1044900075E085E09FE00E94981869E175E02BCFF8
:1044A00040E052EC61E070E08B819C810E94EE0C58
:1044B00068EE73E080E090E00E94570862E175E0EA
:1044C00085E09FE00E94981865E075E014CFF50143
:1044D000108242E350E062E370E0C6010E94C80C23
:1044E000FF24F394F501F08285E0E82E08EF14E054
:1044F00022E330E048EE53E062E674E0C6010E9439
:10450000F11F22E330E044EF51E06DE574E0C601B5
:104510000E94F11FF501F08222E330E044EF51E008
:1045200066EB74E0C6010E94F11F22E330E044EF25
:1045300051E06CEA74E0C6010E94F11F22E330E012
:1045400044EF51E062EA74E0C6010E94F11FF501F8
:10455000F08292E0E92E22E330E048EE53E06EE78D
:1045600074E0C6010E94F11F2AE0E22E0AE214E084
:1045700028EE33E048EE53E067E674E0C6010E949F
:10458000F11FF501108235E0E32E08EF14E022E37D
:1045900030E048EE53E065E974E0C6010E94F11F87
:1045A00002EF13E022E330E044EF51E06AE874E008
:1045B000C6010E94F11FF501F08261E374E08B8176
:1045C0009C810E94AC1840E050E0BA018B819C8134
:1045D0000E94211765E074E08B819C810E94AC18D9
:1045E00064EF71E080E090E00E945708F5011082CE
:1045F00082E090E0E981FA819183808381E090E01C
:104600000F900F900F900F90DF91CF911F910F910E
:10461000FF90EF90DF90CF90BF90AF909F908F90E2
:104620007F906F905F904F903F902F900895F5018D
:10463000108231104ECF40E052EC61E070E08B818F
:104640009C810E94EE0C68EE73E080E090E00E9496
:10465000570862E274E08B819C810E94AC18B30120
:10466000A2018B819C810E94211765E074E08B81FF
:104670009C810E94AC1887CE0F931F93CF93DF933A
:10468000EC0188819981009759F02A813B81261796
:10469000370730F081E0DF91CF911F910F9108959E
:1046A0008B016F5F7F4F0E94CD52009759F0998325
:1046B00088831B830A832C813D81232B59F7FC01BE
:1046C0001082E8CF80E0E7CFEF92FF920F931F9325
:1046D000CF93DF936115710541F480E0DF91CF91B5
:1046E0001F910F91FF90EF90089541155105B1F082
:1046F0007B01EC010C811D81040F151FB8010E9484
:104700003C23882351F3288139818C819D81B70115
:10471000820F931F0E94CB531D830C8381E0DECF59
:10472000FB0144815581608171810C9464230F9356
:104730001F93CF93DF931F921F92CDB7DEB78C01EB
:10474000DC01ED91FC918081918169831A8241E0C5
:1047500050E0BE016F5F7F4F0E946423F8018281A9
:1047600093810196938382830F900F90DF91CF9175
:104770001F910F910895EF92FF920F931F93CF9384
:10478000DF93EC01E880F980D7018D919C91FC01C9
:10479000048115816115710551F0FB010190002024
:1047A000E9F73197AF01461B570B0E946423D701ED
:1047B000ED91FC91848195812A813B81820F931F29
:1047C000801B910B9B838A83DF91CF911F910F9167
:1047D000FF90EF9008950F931F93CF93DF93CDB782
:1047E000DEB766970FB6F894DEBF0FBECDBF9C0153
:1047F000CB011E8AFE0176960AE010E0B8010E9405
:104800002851805D8293CB010097C1F7BF01C90198
:104810000E94BB2366960FB6F894DEBF0FBECDBFD5
:10482000DF91CF911F910F910895FF920F931F93E6
:10483000CF93DF936115710549F464E773E0DF916D
:10484000CF911F910F91FF900C94BB238B01EC0132
:1048500062E2CE010E949723F80161918F016623E5
:1048600051F0EFE5F3E0F080FF2099F381816817C4
:1048700059F03296F8CF62E2CE01DF91CF911F91CD
:104880000F91FF900C9497236CE5CE010E94972323
:104890006F2DDFCF2F923F924F925F926F927F9258
:1048A0008F929F92AF92BF92CF92DF92EF92FF9240
:1048B0000F931F93CF93DF93CDB7DEB76C970FB6EF
:1048C000F894DEBF0FBECDBFDC01ED91FC911197D6
:1048D0003197E830F10508F0D7C11B018C0188271A
:1048E000EB58FB4D8F4F0C947D51BC26B526E82626
:1048F000C726C32668268B267D24FD01428053806F
:1049000064807580A3019201C301B2010E945A4ED6
:1049100060E474E0811133C220E030E0A901C301FA
:10492000B2010E945A4E87FF08C06DE2C1010E9489
:10493000972377FA709477F8709420E030E0A9011B
:10494000C301B2010E945A4E882389F0A30192014B
:10495000C301B2010E94AF4F9B01AC01C301B20180
:104960000E945A4E64E474E0882309F408C220E8E7
:1049700036E948E15BE4C301B2010E94C35087FD00
:104980007FC0AEEEEA2EA2E0FA2EBEEBCB2EB2E056
:10499000DB2E16EDA12E12E0B12E00E210E0188EF3
:1049A0001F8AD7015E914E913E912E917D01C301E8
:1049B000B2010E94C35087FD11C0F60124893589D8
:1049C00046895789C301B2010E94C04E2B013C01A8
:1049D0008F89988D800F911F988F8F8B15950795D4
:1049E00094E0C91AD108AE14BF04D9F699249A9458
:1049F00020E030E0A901C301B2010E94C3501816A3
:104A00000CF045C02CEA35EC47E257E3C301B20194
:104A10000E945A4E1816DCF1A92DB4E0AB025001E9
:104A20001124D12CC12CEFEF9E1689F17501EC0CED
:104A3000FD1CF701EA55FD4FA301920160817181D0
:104A4000828193810E94C35018169CF4F701EA52A8
:104A5000FD4F2081318142815381C301B2010E9407
:104A6000C04E2B013C018F89988D801B910B988F34
:104A70008F8B159507959A9494E0C91AD108D3CFD6
:104A800000E210E0E5E09E2E188E1F8AB1CFC30130
:104A9000B2010E9494506B017C014B015C0106E065
:104AA00080E492E4AFE0B0E0898F9A8FAB8FBC8F47
:104AB000102F01509AE089169104A104B104C8F0A6
:104AC000698D7A8D8B8D9C8D2AE030E040E050E03E
:104AD0000E943C51298F3A8F4B8F5C8FC501B401E6
:104AE0002AE030E040E050E00E943C5149015A0188
:104AF000DFCFC701B6010E945F4E9B01AC01C3012D
:104B0000B2010E94AE4F4B015C01698D7A8D8B8D95
:104B10009C8D0E945F4E9B01AC01C501B4010E94B7
:104B2000C04E4B015C010E9494502B013C010E943D
:104B30005F4E9B01AC01C501B4010E94AE4F9B01C9
:104B4000AC010E94AF4F0E949450460E571E681E43
:104B5000791E898D9A8DAB8DBC8D481659066A06D3
:104B60007B06D8F09FEFC91AD90AE90AF90AAF897A
:104B7000B88DAB2B39F1BAE0CB16D104E104F104C6
:104B800008F1EF89F88D3196F88FEF8B412C512C7D
:104B90003201C12CD12C7601C3945AE0852E912C80
:104BA000A12CB12CC301B201A50194010E943C517A
:104BB000672B682B692B51F4111644F429013A0133
:104BC0001150F0CF412C512C3201E7CF1E8ACE017B
:104BD00046969A8F898F4AE0842E912CA12CB12C75
:104BE000C701B601A50194010E943C51605DA98DE9
:104BF000BA8D6E93BA8FA98F69017A01C114D1045D
:104C0000E104F10469F7BD01C1010E94BB23112336
:104C100051F1188A6E01B0E1CB0ED11C012F760143
:104C20003AE0832E912CA12CB12C015068F0C301E5
:104C3000B201A50194010E943C51605DF6016293AE
:104C40006F0129013A01F1CF612F70E0F701E61BF6
:104C5000F70B31978EE28083609570956E0D7F1D06
:104C6000C1010E94BB238F89988D97FF26C06DE4F8
:104C700074E0C1010E94BB236F89788D71956195A5
:104C80007109C1010E94EB236C960FB6F894DEBF48
:104C90000FBECDBFDF91CF911F910F91FF90EF908D
:104CA000DF90CF90BF90AF909F908F907F906F904C
:104CB0005F904F903F902F900895AF89B88DAB2BA8
:104CC00019F365E6C1010E9497236F89788DD9CFCA
:104CD000FD01028113816BE5C1010E949723D80178
:104CE00012960D911C910115110581F0B101C801B9
:104CF00002960E944A24F8010081118101151105D4
:104D000029F06CE2C1010E949723EDCF6DE5C1014E
:104D10000E949723B9CF12960D911C916BE7C101A8
:104D20000E949723F8010281138101151105D9F022
:104D3000D80112966D917C91C1010E9415246AE3FD
:104D4000C1010E949723B101C80104960E944A2420
:104D5000F801008111810115110529F06CE2C101F2
:104D60000E949723E2CF6DE7D2CF12966D917C918E
:104D7000C1010E94152488CFFD0162817381C101A8
:104D80000E94BB2381CF6DE2C1010E949723D8010D
:104D900012966D917D918D919C9115971E8A8E0131
:104DA0000A5E1F4F2AE0C22ED12CE12CF12CA70164
:104DB00096010E943C51605DF80162938F01B90138
:104DC000CA01611571058105910589F7BF01D7CF2A
:104DD000FD0182819381A481B58165E374E0892B13
:104DE0008A2B8B2B61F66AE374E0C9CFCF93DF93F4
:104DF000EC0188819981009711F00E944452198238
:104E000018821D821C821B821A82DF91CF91089525
:104E1000CF93DF93EC01FB0101900020E9F731977C
:104E2000AF01461B570B0E946423811103C0CE01C2
:104E30000E94F626CE01DF91CF910895CF93DF93A4
:104E4000EC01FB0144815581608171810E946423E2
:104E5000811103C0CE010E94F626CE01DF91CF91D1
:104E60000895EF92FF920F931F93CF93DF93EC017E
:104E70007B018A01BA010E943C2381110BC0CE0143
:104E80000E94F626CE01DF91CF911F910F91FF90E6
:104E9000EF9008951D830C83B701888199810E944A
:104EA000CB53F0CFFB0101900020E9F73197AF0120
:104EB000461B570B0C9431270F931F93CF93DF930F
:104EC000CDB7DEB762970FB6F894DEBF0FBECDBF89
:104ED0008C01CB01F801118210821382128215829B
:104EE00014824AE0BE016F5F7F4F0E94CC4BBE012F
:104EF0006F5F7F4FC8010E94522762960FB6F894E9
:104F0000DEBF0FBECDBFDF91CF911F910F910895EE
:104F1000EF92FF920F931F93CF93DF938C01EC01DD
:104F20002197FE01E251FD4FF08061E08F2D0E943C
:104F3000EA0760E08F2D0E94070786E18C9F7001D1
:104F40008D9FF00C1124E701C750DF4E60E088818F
:104F50000E9407071B821A82198A188A1A8A1B8ADA
:104F60001C8A1D8A6DE673E0C70183509F4E0E9424
:104F700052276DE673E0C7018D5F9E4E0E94522757
:104F80000130110599F480E090E0A0E4B1E4809351
:104F9000770290937802A0937902B0937A02DF911E
:104FA000CF911F910F91FF90EF900895023011055E
:104FB000B1F71092070210920802109209021092A3
:104FC0000A0261E083E00E94EA0760E083E00E9459
:104FD000070761E086E00E94EA0760E086E0DF9173
:104FE000CF911F910F91FF90EF900C940707CF93F3
:104FF000DF93EC01FB018617970749F0608171810F
:105000006115710541F0448155810E943127CE011F
:10501000DF91CF9108950E94F626F9CFFC0111820D
:10502000108213821282158214820C94F727FC01DD
:105030001182108213821282158214826115710509
:1050400051F0FB0101900020E9F73197AF01461BB9
:10505000570B0C9431270895FC01808191810097B2
:1050600011F00C9444520895CF92DF92EF92FF9288
:105070000F931F93CF93DF93CDB7DEB764970FB62F
:10508000F894DEBF0FBECDBF6C017B0168EC70E011
:1050900080E090E00E9457088AE189871A8605E03F
:1050A00010E080E594E00E94B4188DE792E00E9441
:1050B000B41884E694E00E94B41880E590E00E9461
:1050C0006F1748EF54E06CE271E088E893E10E94CA
:1050D000C01D8350823088F167E674E081E694E178
:1050E0000E94B11D81110BC048EF54E068EC70E0E4
:1050F00088EA91E60E94C01D83508230F0F068EB90
:105100007BE080E090E00E94570882E794E00E94F4
:105110008B1840E154E068EC70E080E197E20E9477
:10512000C01D833009F4DAC0843009F0DAC067E7C3
:1051300077E085E09FE00E9498180150110909F07E
:10514000B0CF60E678E085E09FE00E9498188091FB
:105150002C1590912D15019799F08BEF94E00E94FA
:105160008B1848EF54E062E370E088E893E10E9416
:10517000C01D833009F43DC110922D1510922C15DD
:1051800060ED77E080E090E00E94570867E478E007
:1051900085E09FE00E94981860E087E00E94070782
:1051A00068E873E180E090E00E94570861E087E0E2
:1051B0000E94070768E873E180E090E00E945708CA
:1051C00063E378E085E09FE00E94981840E855E2AC
:1051D00060E070E081E694E10E943620892B09F4BA
:1051E00015C165E278E085E09FE00E94981881E0B3
:1051F0008093370E8091370E882309F44EC06EEFEE
:1052000077E085E09FE00E94981886E095E00E9494
:105210008B1868EB7BE080E090E00E94570860E527
:105220007EE0CE0101960E941728E980FA8064E4AE
:105230007EE0CE0109960E94172809851A8568E349
:105240007EE0CE010F960E941728A701B8018F8536
:1052500098890E94F81D8C01CE010F960E942C287F
:10526000CE0109960E942C28CE0101960E942C287E
:10527000012B09F4D2C06EEE77E085E09FE00E943A
:1052800098188DEB93E00E948B1868E873E180E03A
:1052900090E00E9457080E94830B68EE73E080E064
:1052A00090E00E945708E0909202F090930281E211
:1052B00090E10E940F05882309F4B6C0EBECFFE0F3
:1052C00081E090E0E816F9060CF4AEC0219131912E
:1052D0002130310509F4C0C00196F4CF67E477E0CE
:1052E00028CF60EA7FE080E090E00E9457088DE7D9
:1052F00094E00E94B418C6010E94B41883E894E0B8
:105300000E94B4188DE792E00E94B41880EF94E0F8
:105310000E94B41885E994E00E94B4188BEA94E0E6
:105320000E94B4188DED94E00E94B418F70101902A
:105330000020E9F7CF0101974AE0BE016F5F7F4F80
:105340008E199F090E94CC4BCE0101960E94B41881
:105350008EEE94E00E94B418C7010E94B4188EEE3D
:1053600094E00E94B418CE0109960E94B41843EF4D
:1053700054E064E170E088EA91E60E94C01D835029
:10538000823008F4DECE62E370E080E090E00E94BC
:1053900057084EE353E069EF7AE08FE594E10E940D
:1053A000B20B8C018CEC93E00E948B1880912C1531
:1053B00090912D150697D1F483E090E090932D15F0
:1053C00080932C150115110509F4BBCEC801649614
:1053D0000FB6F894DEBF0FBECDBFDF91CF911F9106
:1053E0000F91FF90EF90DF90CF90089584E090E0D0
:1053F000E5CF64EF71E080E090E00E94570882E022
:1054000090E090932D1580932C15BACE68E178E04A
:1054100085E09FE00E949818EDCE61EE77E085E090
:105420009FE00E94981839CF10E08BEB90E10E942A
:105430000F05882399F081E090E0E816F90674F0F2
:10544000FC01EE0FFF1FE15AFF4E24813581213010
:10545000310599F00196F1CF11E0E7CF11110DC0A0
:105460006DEC77E085E09FE00E94981860E08CE0AA
:105470000E94070710E000E0A9CF6AE977E085E025
:105480009FE00E949818F6CFCF92DF92EF92FF92A2
:105490000F931F93CF93DF93CDB7DEB72C970FB643
:1054A000F894DEBF0FBECDBF8C01CB01BA010E94C4
:1054B0000113009709F445C07C0124E0E20EF11CC1
:1054C000C7010E944116BC01892BE9F56DE673E026
:1054D000CE0101966C010E941728DC86CB86CE0196
:1054E0000B9698878F831A861986BE01695F7F4F56
:1054F000C7010E944A2489819A81F801918380839F
:105500008B819C81938382838D819E81958384830B
:105510001A8219821C821B821E821D82C6010E9471
:105520002C28C8012C960FB6F894DEBF0FBECDBF55
:10553000DF91CF911F910F91FF90EF90DF90CF906F
:1055400008956DE673E0C8010E941728EACF2F92F4
:105550003F924F925F926F927F928F929F92AF9203
:10556000BF92CF92DF92EF92FF920F931F93CF9350
:10557000DF93CDB7DEB762970FB6F894DEBF0FBEEC
:10558000CDBF6C014B011A01590127013801C90136
:10559000019726E1289F8001299F100D1124B60153
:1055A000C80183509F4E0E94F727B401C8018D5F48
:1055B0009E4E0E94F72707501F4ED80151963C92ED
:1055C0002E92509781E090E013969C938E931297C1
:1055D0000E94DC11F801628B738B848B958B61E0E8
:1055E00080810E94EA0761E0D8018C910E94070740
:1055F000B1E0AB16B10461F44092E10A5092E20AC4
:105600006092E30A7092E40AC301B7010E94C118D4
:10561000B501CE0101960E945C2761E175E0CE01E3
:1056200007960E941728BE016F5F7F4FCE01079635
:105630000E941E276DE175E00E940827B6010E94B6
:105640001E27BC01CE010D960E940E28CE010796A2
:105650000E942C28CE0101960E942C28CE010D9686
:105660000E94BE166DE673E08FEB9FE00E9452270A
:10567000B601CE0101960E940E2863ED75E0CE01C1
:1056800007960E941728BE016F5F7F4FCE010796D5
:105690000E941E27BC018FEB9FE00E949023CE0149
:1056A00007960E942C28CE0101960E942C28E9EF33
:1056B000FAE08EE393E0DF019C011D92215030401F
:1056C000E1F76091BF0F7091C00F83E295E00E94F7
:1056D00034286BE770E089EF9AE00E94B753BC0171
:1056E00085E09FE00E947218CE010D960E942C2842
:1056F00062960FB6F894DEBF0FBECDBFDF91CF919B
:105700001F910F91FF90EF90DF90CF90BF90AF90DF
:105710009F908F907F906F905F904F903F902F90D1
:105720000895EF92FF920F931F93CF93DF93CDB71E
:10573000DEB768970FB6F894DEBF0FBECDBF9B01F2
:105740002150310946E1429F7001439FF00C112422
:10575000F701E750FF4E46855785DC0114962D91E1
:105760003C914217530709F07CC08B01BC01C70173
:105770008D5F9E4E0E94B912892B09F072C0B7014D
:1057800063507F4ECE0107960E940E28C8010E94EA
:105790008827B801CE0143960E945C2767E475E034
:1057A000CE010D960E941728BE016D5E7F4FCE017F
:1057B0000D960E941E276DE175E00E940827BE012C
:1057C000695F7F4F0E941E27BC01CE0101960E9497
:1057D0000E28CE010D960E942C28CE0143960E94E1
:1057E0002C28CE0101960E94BE166DE673E08FEB69
:1057F0009FE00E94522763ED75E0CE010D960E9456
:105800001728BE01695F7F4FCE010D960E941E27AB
:10581000BC018FEB9FE00E949023CE010D960E9469
:105820002C28E9EFFAE08EE393E0DF019C011D9262
:1058300021503040E1F76091BF0F7091C00F8EE5AD
:1058400095E00E94342869EF7AE085E09FE00E94AD
:105850007218CE0101960E942C28CE0107960E9454
:105860002C2868960FB6F894DEBF0FBECDBFDF912F
:10587000CF911F910F91FF90EF90089585ED809348
:10588000BC008091720A9091730AA091740AB09141
:10589000750A0796A11DB11D23E0B695A7959795AA
:1058A00087952A95D1F72091BC0024FD03C0109262
:1058B000700A08954091720A5091730A6091740AB7
:1058C0007091750A452B462B472B69F30097A1056C
:1058D000B10541F025E32A95F1F700000197A109F0
:1058E000B109E1CF8091710A0C94240A2F923F9262
:1058F0004F925F926F927F928F929F92AF92BF92E0
:10590000CF92DF92EF92FF920F931F93CF93DF938B
:10591000CDB7DEB7C758D1400FB6F894DEBF0FBE83
:10592000CDBF6DEB73E085E09FE00E9498188091F9
:10593000FB109091FC10019709F04BC00E94DC1104
:1059400000910B1110910C1120910D1130910E113D
:105950006B017C01C01AD10AE20AF30AA091091175
:10596000B0910A112CE330E00E948551C616D7068B
:10597000E806F90670F168E173E085E09FE00E94B7
:10598000981881E090E00E948827809111119091F1
:105990001211019779F180911111909112110197D3
:1059A00009F054C04091BA0A5091BB0A6091BC0AF8
:1059B0007091BD0A83E00E94DE1A4091BA0A5091AC
:1059C000BB0A6091BC0A7091BD0A86E00E94DE1A93
:1059D0003DC08091FB109091FC100197B1F6609151
:1059E000E10A7091E20A8091E30A9091E40A0E9430
:1059F000C118CBCF0E94DC1100912111109122110E
:105A000020912311309124116B017C01C01AD10A1D
:105A1000E20AF30AA0911F11B09120112CE330E0AB
:105A20000E948551C616D706E806F90608F4B3CFDA
:105A30006BE073E085E09FE00E94981882E090E0C0
:105A40000E94882783E090E00E9488278091271198
:105A500090912811019791F0809127119091281130
:105A6000019799F54091BA0A5091BB0A6091BC0A1E
:105A70007091BD0A86E00E94DE1A27C00E94DC11E8
:105A800000913711109138112091391130913A114C
:105A90006B017C01C01AD10AE20AF30AA091351108
:105AA000B09136112CE330E00E948551C616D7061E
:105AB000E806F90688F26EEF72E085E09FE00E944A
:105AC000981883E090E00E9488278091980905EC5F
:105AD0001FE081110C94793A5EE3652E53E0752E38
:105AE00068012CE5C20ED11CC6010E940F05882357
:105AF00009F430C1EE24E394F12C8091920290914C
:105B000093028E159F050CF425C14701880C991C42
:105B1000800E911ED4011496AD90BC90B1E0AB16EE
:105B2000B10409F013C10E94DC11F701EE0FFF1F51
:105B3000EE0FFF1FE00FF11F268D378D40A151A101
:105B40001B012C01221A330A440A550AF801A081CC
:105B5000B1812CE330E00E948551261637064806B5
:105B6000590608F4F3C06AEA70E080E090E00E9411
:105B7000570860E0F701E650FD4F80810E9407075B
:105B800062EF72E085E09FE00E941905B70185E0B1
:105B90009FE00E945717D40115961C921E921497ED
:105BA000809092029090930281E090E0881699068E
:105BB0006CF0FC01EE0FFF1FE00FF11F2481358117
:105BC0002130310509F4C2C00196F0CF81E290E1A5
:105BD0000E940F05882371F0EBECFFE081E090E07C
:105BE000881699063CF02191319121303105B1F0B0
:105BF0000196F6CF312C8BEB90E10E940F058823A4
:105C000081F0E5E6F0E18A149B045CF081919191CA
:105C1000019769F0BFEFAB1ABB0AF5CF3324339479
:105C2000EACF311004C060E08FE10E940707B6019F
:105C3000CE0182960E940E2862E875E0CE010196A0
:105C40000E941728BE016E5D7F4FCE0101960E9413
:105C50001E27BC01CE0188960E940E28CE01019617
:105C60000E942C28CE0182960E942C28CE01889674
:105C70000E94BE166DE673E08FEB9FE00E945227F4
:105C8000B601CE0182960E940E2861EA75E0CE012F
:105C900001960E941728BE016E5D7F4FCE010196CE
:105CA0000E941E27BC018FEB9FE00E949023CE0133
:105CB00001960E942C28CE0182960E942C28E9EFA2
:105CC000FAE09301119221503040E1F76091BF0F4B
:105CD0007091C00F86EA95E00E9434286BE770E06F
:105CE00089EF9AE00E94B753BC0185E09FE00E94D3
:105CF00072186DE673E0C6010E945227D8011D920A
:105D00001C92409192025091930282E090E09C019B
:105D10002F5F3F4F019748175907A4F0F901EE0F85
:105D2000FF1FE00FF11F11821082F901EE0FFF1F1C
:105D3000EE0FFF1FE00FF11F168A178A108E118ECB
:105D4000C901E5CFCE0188960E942C28BFEFEB1A3F
:105D5000FB0AD3CE06561F4FE0E1093F1E0709F0AC
:105D6000BFCE0E94D60D61E085E30E94070743E0A5
:105D7000A42EB12CD12CC12C5BE1852E53E0952EA5
:105D80000E948A0832E9E32E39E0F32E87018CE382
:105D90000E941B08D8018D939C93C4010197F1F7D1
:105DA00002501109B8E004301B0789F741E052E0C6
:105DB0008FEF91E0F70120813181821793070CF476
:105DC000C901241735070CF4A901F2E0EF1AF10814
:105DD0000E151F0579F7841B950BC80ED91E21E0FF
:105DE000A21AB10869F6C60163E070E00E9428516A
:105DF000CB01770FAA0BBB0BC658DE4F8883998364
:105E0000AA83BB83CA57D140BC01CD010E94614E19
:105E10002CE73FE047E95BE30E94C04E2AE534E609
:105E20004BE35EE30E94AE4F4B015C010E943E09D2
:105E30000E94270980680E94BD086AE070E080E047
:105E400090E00E9457080E94270980620E94BD08C6
:105E500061E470E080E090E00E94570819821A82A5
:105E600081E0C758DE4F8883C957D14042E050E0F7
:105E7000BE016F5F7F4FCE0187589E4F0E94E8089A
:105E800069817A817627672776277695679590E0EE
:105E900080E00E945F4E20E030E040E058E30E9446
:105EA000C04E20E030E646E855E40E94C04E2B018B
:105EB0003C0123EF3DEB4EE151EB0E94C04E26E149
:105EC00033E843E957E30E94AF4F0E94CE5022E3EC
:105ED00031E140E85BE30E94AE4F2FE735E04BE94C
:105EE00055EB0E941B506B017C0120E030E0A901C2
:105EF0000E94C35087FF94C020E030E04AE754E49A
:105F0000C301B2010E941B5020E030E048EC52E493
:105F10000E94C04E6B017C012BE532E44EE050E460
:105F20000E94C04E2FE135E042E753E40E94AE4F9D
:105F30002B013C01A7019601C701B6010E94C04E8A
:105F4000C258DE4F688379838A839B83CE57D140C2
:105F500024E338E749E25BE30E94C04EA3019201CB
:105F60000E94AF4F2B013C01C258DE4F288139817E
:105F70004A815B81CE57D140C701B6010E94C04E15
:105F8000C258DE4F688379838A839B83CE57D14082
:105F900026E03FEE41EA56E30E94C04E9B01AC0171
:105FA000C301B2010E94AE4F2B013C01C258DE4F2B
:105FB000288139814A815B81CE57D140C701B60122
:105FC0000E94C04EC258DE4F688379838A839B83C8
:105FD000CE57D14023E137E142EF52E30E94C04E59
:105FE0009B01AC01C301B2010E94AE4F2B013C01E9
:105FF000C258DE4F288139814A815B81CE57D1401A
:10600000C701B6010E94C04E2BE339E947E25FE2C7
:106010000E94C04EA30192010E94AF4F6B017C0110
:1060200020E030E0A901C701B6010E945A4E87FF67
:1060300002C00C94043B20E030E042E852E4C70187
:10604000B6010E94C350181614F40C94043BC0927D
:106050009409D0929509E0929609F09297092091BF
:10606000B20A3091B30A4091B40A5091B50AC50101
:10607000B4010E94C04E2091B60A3091B70A4091F7
:10608000B80A5091B90A0E94AF4F6B017C0120E021
:1060900030E048EC51E46091940970919509809149
:1060A0009609909197090E94AE4F20E030E048E4B5
:1060B00052E40E941B509B01AC0160E070E080E85C
:1060C0009FE30E94AE4F9B01AC01C701B6010E9445
:1060D000C04E6B017C0120E030E0A9010E945A4EC5
:1060E00087FF03C0C12CD12C760161E873E085E005
:1060F0009FE00E9498186AE773E085E09FE00E94A5
:106100001905609194097091950980919609909173
:1061100097090E945E1868EC75E085E09FE00E9498
:10612000AC1862E773E085E09FE00E941905C6584D
:10613000DE4F488159816A817B81CA57D14085E011
:106140009FE00E94211766E673E085E09FE00E94D1
:106150001905C501B4010E945E186DE573E085E084
:106160009FE00E941905C701B6010E945E186FE406
:1061700073E085E09FE00E94981865E273E085E097
:106180009FE00E949818C092AE0AD092AF0AE092A7
:10619000B00AF092B10A6DE673E08FEB9FE00E94C7
:1061A000522760E072E0CE0182960E9417286DECC3
:1061B00075E0CE0101960E941728BE016E5D7F4FEB
:1061C000CE0101960E941E27BC018FEB9FE00E942A
:1061D0009023CE0101960E942C28CE0182960E9427
:1061E0002C286DEF70E1CE0182960E940E2862EDA0
:1061F00075E0CE0101960E941728BE016E5D7F4FAB
:10620000CE0101960E941E27BC018FEB9FE00E94E9
:106210009023CE0101960E942C28CE0182960E94E6
:106220002C2863E171E1CE0182960E940E2868ED70
:1062300075E0CE0101960E941728BE016E5D7F4F6A
:10624000CE0101960E941E27BC018FEB9FE00E94A9
:106250009023CE0101960E942C28CE0182960E94A6
:106260002C2869E271E1CE0182960E940E286FED22
:1062700075E0CE0101960E941728BE016E5D7F4F2A
:10628000CE0101960E941E27BC018FEB9FE00E9469
:106290009023CE0101960E942C28CE0182960E9466
:1062A0002C286091DB0A7091DC0ACE0182960E9454
:1062B0005C2766EE75E0CE0101960E941728BE01AC
:1062C0006E5D7F4FCE0101960E941E27BC018FEBB1
:1062D0009FE00E949023CE0101960E942C28CE01BF
:1062E00082960E942C286091AE0A7091AF0A80912C
:1062F000B00A9091B10A1BA21AA21DA21CA21FA251
:106300001EA28E010F5F1F4F22E044E00E94654BEA
:10631000009711F40C94123BBC01CE0182960E94AE
:1063200052276EEE75E0CE0101960E941728BE013D
:106330006E5D7F4FCE0101960E941E27BC018FEB40
:106340009FE00E949023CE0101960E942C28CE014E
:1063500082960E942C286DE673E0CE018A5C9E4FE7
:106360000E94172881E290E10E940F05882309F11D
:1063700061E270E1CE0182960E940E2865E674E02B
:10638000CE0101960E941728BE016E5D7F4FCE019F
:1063900001960E941E27BC01CE018A5C9E4F0E947E
:1063A0009023CE0101960E942C28CE0182960E9455
:1063B0002C288BEB90E10E940F05882309F16BEBF1
:1063C00070E1CE0182960E940E2865E674E0CE014F
:1063D00001960E941728BE016E5D7F4FCE01019687
:1063E0000E941E27BC01CE018A5C9E4F0E94902312
:1063F000CE0101960E942C28CE0182960E942C2864
:10640000C65CDE4F48815981CA53D14041155105C0
:1064100011F1CA5CDE4F88819981C653D140415049
:106420005109C65CDE4F59834883CA53D140BC0131
:106430006F5F7F4F0E94E053CA5CDE4FE881F981B5
:10644000C653D140C65CDE4F88819981CA53D14082
:10645000E80FF91F1082BE016A5C7E4FCE01829662
:106460000E940E2864EF75E0CE0101960E94172865
:10647000BE016E5D7F4FCE0101960E941E27BC01BA
:106480008FEB9FE00E949023CE0101960E942C2862
:10649000CE0182960E942C286091BF0F7091C00F90
:1064A00085E09FE00E947218E9EFFAE08EE393E046
:1064B000DF019C011D9221503040E1F76091BF0F38
:1064C0007091C00F8BEF95E00E9434286BE770E06D
:1064D00089EF9AE00E94B7538C0167EB73E085E087
:1064E0009FE00E949818B80185E09FE00E94721812
:1064F000C8010115110511F48DE693E02BEE31E191
:106500003A8329839C838B831E830D838AE08F8348
:10651000CE0101960E94AF146C016EE673E00E94FA
:106520007B14CE57DF4F2883C258D040CD57DF4F62
:106530003883C358D040CC57DF4F4883C458D0402D
:10654000CB57DF4F5883C558D040CA57DF4F6883B9
:10655000C658D040C957DF4F7883C758D04086E02F
:10656000FE01EE57FF4FDE01A65DBE4F01900D927A
:106570008A95E1F786E0FE01E65DFE4FDE01AC5D47
:10658000BE4F01900D928A95E1F7CC5DDE4F888178
:106590009981C452D140892BA9F0009192021091A7
:1065A00093026EE673E0C6010E9471140817190782
:1065B00049F06EE673E0C6010E9471149093930255
:1065C0008093920265E176E0C6010E94621467E161
:1065D00077E0C6010E9462148C01DC018D919C91D0
:1065E000892B09F468C067E177E0C6010E94621454
:1065F0004EE156E0BC01CE0182960E94442AEAA0F8
:10660000FBA042E256E0B801CE0101960E94442A66
:10661000B70189819A810E94C2537C01CE01019603
:106620000E942C28CE0182960E942C28EF2809F483
:1066300042C06FE276E0C8010E9455148093990928
:1066400068E376E0C8010E945514E82E882399F18A
:1066500067E777E0C8010E945514F82E882311F4EB
:106660000C94113C10929809C8010E9404135C011B
:1066700067E777E0C8010E9471143C014EE156E0E3
:10668000B801CE018E960E94442A81E290E10E94D8
:10669000FE048111CDC78BEB90E10E94FE0401E066
:1066A00010E09BEBE92E90E1F92E8111C7C7CE01D6
:1066B0008E960E942C286AEA76E0C6010E947B141E
:1066C000ED962FAFED97EE963FAFEE97EF964FAF6B
:1066D000EF97C158DF4F5883CF57D040C058DF4F96
:1066E0006883C058D040CF57DF4F7883C158D0401F
:1066F00086E0FE01E458FF4FDE01A25EBE4F01902E
:106700000D928A95E1F786E0FE01E25EFE4FDE0122
:10671000A85EBE4F01900D928A95E1F7C85EDE4FEC
:1067200088819981C851D140892B11F40C94ED3F97
:10673000DA82C9828AEA96E09C838B838091E50A9B
:106740009091E60AA091E70AB091E80ACB58DE4F93
:1067500088839983AA83BB83C557D140BE016B58F8
:106760007E4FCE0101960E94391481110DC06AEA54
:1067700076E0C6010E9415136093E50A7093E60A5D
:106780008093E70A9093E80A61EB76E0C6010E94E5
:106790007B14E7962FAFE797E8963FAFE897E99627
:1067A0004FAFE997EA965FAFEA97EB966FAFEB973B
:1067B000EC967FAFEC97DA82C98281EB96E09C83FE
:1067C0008B838091E90A9091EA0AA091EB0AB0913B
:1067D000EC0ACF58DE4F88839983AA83BB83C157C5
:1067E000D140BE016F587E4FCE0101960E943914F0
:1067F00081110DC061EB76E0C6010E941513609314
:10680000E90A7093EA0A8093EB0A9093EC0A68EB2A
:1068100076E0C6010E947B14E1962FAFE197E296E5
:106820003FAFE297E3964FAFE397E4965FAFE4970D
:10683000E5966FAFE597E6967FAFE69786E0FE01B7
:10684000E059FF4FDE01AE5EBE4F01900D928A957A
:10685000E1F786E0FE01EE5EFE4FDE01A45FBE4F73
:1068600001900D928A95E1F7C45FDE4F888199818E
:10687000CC50D140892B61F1DA82C98288EB96E055
:106880009C838B838091ED0A9091EE0AA091EF0A90
:10689000B091F00AC359DE4F88839983AA83BB83E2
:1068A000CD56D140BE0163597E4FCE0101960E9464
:1068B000391481110DC068EB76E0C6010E941513F2
:1068C0006093ED0A7093EE0A8093EF0A9093F00ABA
:1068D0006EEB76E0C6010E947B14AB962FAFAB97B0
:1068E000AC963FAFAC97AD964FAFAD97AE965FAF5E
:1068F000AE97AF966FAFAF97E0967FAFE09786E029
:10690000FE01E659FF4FDE01AA5FBE4F01900D92D6
:106910008A95E1F786E0FE01EA5FFE4FDE01B3955E
:1069200001900D928A95E1F7C050DF4F88819981DF
:10693000C050D140892B61F1DA82C9828EEB96E09A
:106940009C838B838091F10A9091F20AA091F30AC3
:10695000B091F40AC759DE4F88839983AA83BB8319
:10696000C956D140BE0167597E4FCE0101960E94A3
:10697000391481110DC06EEB76E0C6010E9415132B
:106980006093F10A7093F20A8093F30A9093F40AE9
:1069900064EC76E0C6010E947B14A5962FAFA59704
:1069A000A6963FAFA697A7964FAFA797A8965FAFBB
:1069B000A897A9966FAFA997AA967FAFAA9786E0E6
:1069C000FE01EC59FF4FDE01A650BF4F01900D9222
:1069D0008A95E1F786E0FE01E650FF4FDE01AC50FC
:1069E000BF4F01900D928A95E1F7CC50DF4F88811F
:1069F0009981C45FD040892B61F1DA82C98284EC2D
:106A000096E09C838B838091F50A9091F60AA09181
:106A1000F70AB091F80ACB59DE4F88839983AA838D
:106A2000BB83C556D140BE016B597E4FCE01019646
:106A30000E94391481110DC064EC76E0C6010E94F9
:106A400015136093F50A7093F60A8093F70A9093F2
:106A5000F80A6AEC76E0C6010E947B146F962FAFAD
:106A60006F97A0963FAFA097A1964FAFA197A29620
:106A70005FAFA297A3966FAFA397A4967FAFA4979B
:106A800086E0FE01E25AFF4FDE01A251BF4F0190A6
:106A90000D928A95E1F786E0FE01E251FF4FDE019B
:106AA000A851BF4F01900D928A95E1F7C851DF4F71
:106AB00088819981C85ED040892B61F1DA82C982D0
:106AC0008AEC96E09C838B838091B20A9091B30A02
:106AD000A091B40AB091B50ACF59DE4F888399834B
:106AE000AA83BB83C156D140BE016F597E4FCE01F0
:106AF00001960E94391481110DC06AEC76E0C6013E
:106B00000E9415136093B20A7093B30A8093B40A7B
:106B10009093B50A6EEC76E0C6010E947B146996EC
:106B20002FAF69976A963FAF6A976B964FAF6B9797
:106B30006C965FAF6C976D966FAF6D976E967FAFEB
:106B40006E9786E0FE01E85AFF4FDE01AE51BF4F5F
:106B500001900D928A95E1F786E0FE01EE51FF4F1C
:106B6000DE01A452BF4F01900D928A95E1F7C45205
:106B7000DF4F88819981CC5DD040892B61F1DA8229
:106B8000C9828EEC96E09C838B838091B60A9091AB
:106B9000B70AA091B80AB091B90AC35ADE4F8883E8
:106BA0009983AA83BB83CD55D140BE01635A7E4FE2
:106BB000CE0101960E94391481110DC06EEC76E071
:106BC000C6010E9415136093B60A7093B70A8093AA
:106BD000B80A9093B90A62ED76E0C6010E94621489
:106BE0008C01DC018D919C91892B61F11A830983C1
:106BF00087ED96E09C838B838091BA0A9091BB0AC3
:106C0000A091BC0AB091BD0AC75ADE4F8883998310
:106C1000AA83BB83C955D140BE01675A7E4FCE01BE
:106C200001960E94391481110DC067ED76E0C8010C
:106C30000E9415136093BA0A7093BB0A8093BC0A32
:106C40009093BD0A6BED76E0C6010E947B146396BB
:106C50002FAF639764963FAF649765964FAF659784
:106C600066965FAF669767966FAF679768967FAFD8
:106C7000689786E0FE01EE5AFF4FDE01AA52BF4F31
:106C800001900D928A95E1F786E0FE01EA52FF4FEE
:106C9000DE01A053BF4F01900D928A95E1F7C053DA
:106CA000DF4F88819981C05DD040892B61F1DA8204
:106CB000C9828BED96E09C838B838091BE0A909174
:106CC000BF0AA091C00AB091C10ACB5ADE4F888397
:106CD0009983AA83BB83C555D140BE016B5A7E4FB1
:106CE000CE0101960E94391481110DC06BED76E042
:106CF000C6010E9415136093BE0A7093BF0A809369
:106D0000C00A9093C10A6FED76E0C6010E947B1421
:106D10002D962FAF2D972E963FAF2E972F964FAFD4
:106D20002F9760965FAF609761966FAF619762969D
:106D30007FAF629786E0FE01E45BFF4FDE01A65362
:106D4000BF4F01900D928A95E1F786E0FE01E65370
:106D5000FF4FDE01AC53BF4F01900D928A95E1F7D2
:106D6000CC53DF4F88819981C45CD040892B61F17D
:106D7000DA82C9828FED96E09C838B838091C20A70
:106D80009091C30AA091C40AB091C50ACF5ADE4FB0
:106D900088839983AA83BB83C155D140BE016F5AB2
:106DA0007E4FCE0101960E94391481110DC06FED06
:106DB00076E0C6010E9415136093C20A7093C30A5D
:106DC0008093C40A9093C50A63EE76E0C6010E94E0
:106DD0007B1427962FAF279728963FAF28972996A1
:106DE0004FAF29972A965FAF2A972B966FAF2B97B5
:106DF0002C967FAF2C9786E0FE01EA5BFF4FDE0109
:106E0000A254BF4F01900D928A95E1F786E0FE01F2
:106E1000E254FF4FDE01A854BF4F01900D928A95B6
:106E2000E1F7C854DF4F88819981C85BD040892B36
:106E300061F1DA82C98283EE96E09C838B83809134
:106E4000C60A9091C70AA091C80AB091C90AC35B4B
:106E5000DE4F88839983AA83BB83CD54D140BE0182
:106E6000635B7E4FCE0101960E94391481110DC0E3
:106E700063EE76E0C6010E9415136093C60A709314
:106E8000C70A8093C80A9093C90A67EE76E0C601E4
:106E90000E947B1421962FAF219722963FAF229715
:106EA00023964FAF239724965FAF249725966FAF15
:106EB000259726967FAF269786E0FE01E05CFF4F80
:106EC000DE01AE54BF4F01900D928A95E1F786E046
:106ED000FE01EE54FF4FDE01A455BF4F01900D920D
:106EE0008A95E1F7C455DF4F88819981CC5AD0400B
:106EF000892B61F1DA82C98287EE96E09C838B83CD
:106F00008091CE0A9091CF0AA091D00AB091D10A77
:106F1000C75BDE4F88839983AA83BB83C954D14062
:106F2000BE01675B7E4FCE0101960E94391481112C
:106F30000DC067EE76E0C6010E9415136093CE0A7D
:106F40007093CF0A8093D00A9093D10A6CEE76E0CA
:106F5000C6010E947B142AAF3BAF4CAF5DAF6EAF52
:106F60007FAF86E0FE01FA96DE01AA55BF4F019081
:106F70000D928A95E1F786E0FE01EA55FF4FDE01AA
:106F8000A056BF4F01900D928A95E1F7C056DF4F92
:106F900088819981C05AD040892B61F1DA82C982F7
:106FA0008CEE96E09C838B838091CA0A9091CB0AE9
:106FB000A091CC0AB091CD0ACB5BDE4F8883998338
:106FC000AA83BB83C554D140BE016B5B7E4FCE010B
:106FD00001960E94391481110DC06CEE76E0C60155
:106FE0000E9415136093CA0A7093CB0A8093CC0A4F
:106FF0009093CD0A61EF76E0C6010E947B142CAB22
:107000003DAB4EAB5FAB68AF79AF86E0FE01F49667
:10701000DE01A656BF4F01900D928A95E1F786E0FA
:10702000FE01E656FF4FDE01AC56BF4F01900D92B8
:107030008A95E1F7CC56DF4F88819981C459D040B9
:10704000892B61F1DA82C98281EF96E09C838B8380
:107050008091A00A9091A10AA091A20AB091A30ADE
:10706000CF5BDE4F88839983AA83BB83C154D14011
:10707000BE016F5B7E4FCE0101960E9439148111D3
:107080000DC061EF76E0C6010E9415136093A00A5F
:107090007093A10A8093A20A9093A30A68EF76E006
:1070A000C6010E9462148C01FC0180819181892BB0
:1070B00079F16CEF76E0C8010E9415132B013C01B9
:1070C00067E777E0C8010E9471145C014EE156E069
:1070D000B801CE0182960E94442A40E057E0B801F0
:1070E000CE0101960E94442A8301720121E030E022
:1070F000A501BE016E5D7F4FCE0101960E94A72AB9
:10710000CE0101960E942C28CE0182960E942C2846
:1071100062ED76E0C6010E9462148C01DC018D9163
:107120009C91892B79F16CEF76E0C8010E941513D0
:107130002B013C0167E777E0C8010E9471145C01F4
:107140004EE156E0B801CE0182960E94442A44E006
:1071500057E0B801CE0101960E94442A83017201D2
:1071600022E030E0A501BE016E5D7F4FCE010196A9
:107170000E94A72ACE0101960E942C28CE01829659
:107180000E942C2869E077E0C6010E9462148C01FD
:10719000FC0180819181892B79F16CEF76E0C80147
:1071A0000E9415132B013C0167E777E0C8010E949C
:1071B00071145C014EE156E0B801CE0182960E9446
:1071C000442A4EE057E0B801CE0101960E94442ABD
:1071D0008301720123E030E0A501BE016E5D7F4FA7
:1071E000CE0101960E94A72ACE0101960E942C286A
:1071F000CE0182960E942C2863E177E0C6010E94AE
:107200007B142EA73FA748AB59AB6AAB7BAB86E09C
:10721000FE01BE96DE01A257BF4F01900D928A95E6
:10722000E1F786E0FE01E257FF4FDE01A857BF4FAE
:1072300001900D928A95E1F7C857DF4F88819981B7
:10724000C858D040892B09F46CC563E177E0C601CA
:107250000E940113009709F4B3C404960E944116DA
:10726000BC01CE01845C9E4F0E94CB538DEF90E118
:107270000E940F05882389F0BE01645C7E4FCE0119
:1072800001960E94172861E070E0CE0101960E94ED
:10729000912BCE0101960E942C2883E191E10E945E
:1072A0000F05882389F0BE01645C7E4FCE010196F4
:1072B0000E94172862E070E0CE0101960E94912B97
:1072C000CE0101960E942C2889E291E10E940F05CF
:1072D000882389F0BE01645C7E4FCE0101960E9436
:1072E000172863E070E0CE0101960E94912BCE0139
:1072F00001960E942C288FE391E10E940F058823BC
:1073000089F0BE01645C7E4FCE0101960E94172871
:1073100064E070E0CE0101960E94912BCE010196AF
:107320000E942C2860EA7FE080E090E00E945708ED
:10733000BE01645C7E4FCE01805D9E4F0E94172887
:1073400005EC1FE039EF632E30E1732E49EF442E38
:107350004AE0542E5EE3852E53E0952EF801E05A64
:10736000FF4F20813181CC5CDE4F88819981C453ED
:10737000D1402817390709F0C9C45801FCE5AF0E00
:10738000B11CBE01605D7E4FC5010E94B912892B00
:1073900009F0BCC4EE24E394F12CC0909202D0908A
:1073A0009302CE14DF040CF40EC46701CC0CDD1C78
:1073B000C00ED11ED60114968D919C910197D9F4DF
:1073C0006AEA70E080E090E00E94570860E0F70110
:1073D000E650FD4F80810E9407076BEA73E085E06D
:1073E0009FE00E941905B70185E09FE00E945717B2
:1073F000F60115821482F701EE0FFF1FEE0FFF1F3B
:10740000E00FF11F168E178E10A211A2FFEFEF1AD8
:10741000FF0AC3CFCE0188960E942C28D101169670
:107420008D919C91019709F055C0C658DE4FE881B7
:10743000F981CA57D14080819181181619060CF044
:1074400049C080909202909093020E94DC11C25831
:10745000DE4FA881B981CE57D1405E964D905D90A8
:107460006D907C9091979B01AC01241935094609D8
:10747000570929013A01C658DE4FE881F981CA57F8
:10748000D140A081B1812CE330E00E9485514616A5
:10749000570668067906F0F060E08FE10E94070762
:1074A000D10117961C921E9216978A149B040CF415
:1074B000EEC4F501EE0FFF1FE00FF11F84819581EF
:1074C000019741F0BFEFAB1ABB0AEFCFCE01889610
:1074D0000E942C28EFEFCE1ADE0AF2E02F0E311CAC
:1074E0001EC006561F4F20E1093F120711F40C94ED
:1074F000B12E7801FCE5EF0EF11CC7010E940F05CB
:10750000882379F31801CC24C394D12C9801265AEE
:107510003F4FC658DE4F39832883CA57D1408091E8
:107520009202909193028C159D05DCF2D101169682
:10753000AD90BC90B1E0AB16B10461F6C601880F06
:10754000991F880F991FF801E80FF91FC258DE4FE5
:10755000F983E883CE57D1404F01FEE58F0E911C91
:1075600020E030E0A901D4016D917D918D919C9135
:107570000E94AF4F2B013C01F40140825182628294
:107580007382D80112966D917D918D919C91159782
:107590000E94614E9B01AC01C301B2010E94C35025
:1075A00087FD43CF6AEA70E080E090E00E945708D0
:1075B00060E0F601E650FD4F80810E94070766EE0D
:1075C00072E085E09FE00E941905B60185E09FE02A
:1075D0000E945717F1011782168220919202309172
:1075E000930281E090E0281739070CF4BDC3FC0139
:1075F000EE0FFF1FE00FF11F44815581413051050F
:1076000009F468CF0196EFCF86EF98E2A8ECB1E4D9
:107610008093940990939509A0939609B093970944
:107620000C942F30CE0182960E94F6260C94913154
:1076300010E000E081E2E82E80E1F82EBE01625DFC
:107640007F4FC7010E94F727F501A280B3808AE926
:10765000809F2001819F500C112492012B53304FA9
:10766000C658DE4F39832883CA57D1408DE4809FA6
:107670001001819F300C1124A114B10409F466C0DB
:10768000C50102960E94D60E4C016AEA70E080E0C5
:1076900090E00E945708C658DE4FA881B981CA57AA
:1076A000D1406D927C92840101501109F801E5509E
:1076B000FD4F61E080810E94070761E08FE10E9439
:1076C00007070E94DC11F801EE0FFF1FEE0FFF1FEE
:1076D000E40DF51DEB53F04F62A373A384A395A3B0
:1076E000F101E00FF11FEE0FFF1FE553F04F21E016
:1076F00030E031832083B401CE0101960E945C27E3
:107700006EE376E0CE0182960E941728BE016F5F7D
:107710007F4FCE0182960E941E27BC01CE01889623
:107720000E940E28CE0182960E942C28CE0101963E
:107730000E942C28CE0188960E94BE16CE01889603
:107740000E942C28D501AD90BC9096CFB701CE01F8
:1077500001960E940E286AE476E0CE0182960E948D
:107760001728BE016F5F7F4FCE0182960E941E27B1
:10777000BC01CE0188960E940E28CE0182960E94FE
:107780002C28CE0101960E942C28CE0188960E94BA
:10779000BE166DE673E08FEB9FE00E945227E9EF83
:1077A000FAE08EE393E0DF019C011D92215030400E
:1077B000E1F7B701CE0101960E940E2861EA75E05B
:1077C000CE0182960E941728BE016F5F7F4FCE01C7
:1077D00082960E941E27BC018FEB9FE00E9490239F
:1077E000CE0182960E942C28CE0101960E942C2860
:1077F0006091BF0F7091C00F87E696E00E94342819
:107800006BE770E089EF9AE00E94B753BC0185E016
:107810009FE00E947218CE0188960E942C280C943A
:10782000573381E08093980968E876E0C8010E94A8
:107830007114C258DE4F99838883CE57D140C80156
:107840000E9404135C0164E976E0C8010E94011300
:10785000FC01892B09F47AC08481958183309105DC
:10786000A0F5019708F472C00680F781E02D3097EB
:1078700009F46CC08081412C512C3201439484372F
:10788000B1F18B3209F45DC08D3211F43196FE2CCA
:10789000412C512C3201E19080ED8E0D8A3008F0A0
:1078A00052C0AAE0B0E0A30192010E94944F2E2D95
:1078B000EE0C330B205331092901330F660877088A
:1078C000460E571E681E791EE6CF8530910558F08A
:1078D000059751F166817781808591850E948D5051
:1078E0002B013C0104C046805780608471844EE1C6
:1078F00056E0B801CE018E960E94442A81E290E1C2
:107900000E94FE04811126C08BEB90E10E94FE04D0
:1079100001E010E0FBEBEF2EF0E1FF2E811120C023
:10792000CE018E960C9459334680578060847184C2
:107930007094609450944094411C511C611C711CC3
:10794000D6CF3196A5CFF110F3CFD1CF412C512C0A
:107950003201CDCF10E000E0E1E2EE2EE0E1FE2EBC
:10796000BE01625D7F4FC7010E94F727D5011296C5
:10797000AD90BC908AE9809F1001819F300C11244A
:10798000C1018B53904FFC013296CE57DE4FF983E5
:10799000E883C258D1409C01265A3F4FCC57DE4F56
:1079A00039832883C458D1408DE4809FA001819FF2
:1079B000500D1124CA57DE4F59834883C658D14011
:1079C000A114B10409F492C0C50102960E94D60E1A
:1079D0004C0164E670E080E090E00E945708CE57CA
:1079E000DE4FA881B981C258D1404D925D926D920F
:1079F0007C921397C258DE4F28813981CE57D140EF
:107A0000CC57DE4FE881F981C458D14031832083BF
:107A1000840101501109F801E550FD4F61E08081BA
:107A20000E94070761E08FE10E940707C801880FE5
:107A3000991F880F991F820D931DAC014B53504F16
:107A4000C658DE4F59834883CA57D140FA01EE59D0
:107A5000FF4F1082118212821382CA57DE4FE881D3
:107A6000F981C658D140E00FF11FEE0FFF1FE5531B
:107A7000F04F81E090E0918380830E94DC11C65832
:107A8000DE4FA881B981CA57D14092966D937D93FC
:107A90008D939C939597B401CE0101960E945C272B
:107AA0006BE976E0CE0182960E941728BE016F5FD7
:107AB0007F4FCE0182960E941E27BC01CE01889680
:107AC0000E940E28CE0182960E942C28CE0101969B
:107AD0000E942C28CE0188960E94BE16CE01889660
:107AE0000E942C28F501A080B1806ACFB701CE0199
:107AF00001960E940E286AE476E0CE0182960E94EA
:107B00001728BE016F5F7F4FCE0182960E941E270D
:107B1000BC01CE0188960E940E28CE0182960E945A
:107B20002C28CE0101960E942C28CE0188960E9416
:107B3000BE166DE673E08FEB9FE00E945227E9EFDF
:107B4000FAE08EE393E0DF019C011D92215030406A
:107B5000E1F7B701CE0101960E940E2861EA75E0B7
:107B6000CE0182960E941728BE016F5F7F4FCE0123
:107B700082960E941E27BC018FEB9FE00E949023FB
:107B8000CE0182960E942C28CE0101960E942C28BC
:107B90006091BF0F7091C00F87E696E00E94342875
:107BA0006BE770E089EF9AE00E94B753BC0185E073
:107BB0009FE00E947218CE0188960E942C28B0CEB9
:107BC00090E080E04DCB6DE673E0C5010E94522746
:107BD000D8011D921C9281E290E10E940F0588233A
:107BE00071F0EBECFFE081E090E0C816D9063CF0C4
:107BF0002191319121303105B9F00196F6CFF12C68
:107C00008BEB90E10E940F05882389F0E5E6F0E117
:107C100081E090E0C816D90654F0219131912130CD
:107C2000310559F00196F6CFFF24F394E9CFF11016
:107C300004C060E08FE10E940707BE01605D7E4FD7
:107C4000CE0101960E940E286BE177E0CE0182966C
:107C50000E941728BE016F5F7F4FCE0182960E945F
:107C60001E27BC01CE0188960E940E28CE01829666
:107C70000E942C28CE0101960E942C28CE018896C5
:107C80000E94BE166DE673E08FEB9FE00E945227C4
:107C9000BE01605D7E4FCE0101960E940E2861EA12
:107CA00075E0CE0182960E941728BE016F5F7F4F5C
:107CB000CE0182960E941E27BC018FEB9FE00E949E
:107CC0009023CE0182960E942C28CE0101960E941C
:107CD0002C28F2019401119221503040E1F760917B
:107CE000BF0F7091C00F82E397E00E9434286BE7CA
:107CF00070E089EF9AE00E94B753BC0185E09FE0F5
:107D00000E947218CE0188960E942C2806561F4F9A
:107D10006016710609F022CBCE01805D9E4F0E9455
:107D20002C281092F2111092F111CE018A5C9E4F14
:107D30000E942C28C957DE4F0FB6F894DEBF0FBE45
:107D4000CDBFDF91CF911F910F91FF90EF90DF900A
:107D5000CF90BF90AF909F908F907F906F905F90EB
:107D60004F903F902F900895B701CE0182960E94C8
:107D70000E2862E875E0CE0101960E941728BE0128
:107D80006E5D7F4FCE0101960E941E27BC01CE0181
:107D900088960E940E28CE0101960E942C28CE01C2
:107DA00082960E942C28CE0188960E94BE166DE60F
:107DB00073E08FEB9FE00E945227B701CE018296BD
:107DC0000E940E2861EA75E0CE0101960E941728F4
:107DD000BE016E5D7F4FCE0101960E941E27BC0141
:107DE0008FEB9FE00E949023CE0101960E942C28E9
:107DF000CE0182960E942C28A9EFBAE0EEE3F3E0D0
:107E00001D923197E9F76091BF0F7091C00F86EA1C
:107E100095E00E94342860E08FE10E9407076DE63C
:107E200073E0C7010E945227D80112961D921D923D
:107E30001D921C921597C658DE4FE881F981CA57EA
:107E4000D14011821082409192025091930282E0BF
:107E500090E09C012F5F3F4F0197481759070CF4A2
:107E6000D9CAF901EE0FFF1FE00FF11F1182108236
:107E7000F901EE0FFF1FEE0FFF1FEA5AFF4FE00F51
:107E8000F11F1082118212821382C901E2CFB70161
:107E9000CE0182960E940E2863E577E0CE0101961E
:107EA0000E941728BE016E5D7F4FCE0101960E9491
:107EB0001E2760E777E00E940827BC01CE01889664
:107EC0000E940E28CE0101960E942C28CE01829697
:107ED0000E942C28CE0188960E94BE166DE673E0A3
:107EE0008FEB9FE00E945227B701CE0182960E943D
:107EF0000E2861EA75E0CE0101960E941728BE01A6
:107F00006E5D7F4FCE0101960E941E27BC018FEB54
:107F10009FE00E949023CE0101960E942C28CE0162
:107F200082960E942C284EE050E060E877E08FEBCC
:107F30009FE00E946423A9EFBAE0EEE3F3E01D9214
:107F40003197E9F76091BF0F7091C00F82E397E01E
:107F50000E9434286BE770E089EF9AE00E94B753E3
:107F6000BC0185E09FE00E9472186DE673E0C701D6
:107F70000E945227D80112961D921D921D921C92AA
:107F80001597C658DE4FE881F981CA57D140118252
:107F90001082409192025091930282E090E09C0105
:107FA0002F5F3F4F0197481759070CF48FCAF9010B
:107FB000EE0FFF1FE00FF11F11821082F901EE0F8B
:107FC000FF1FEE0FFF1FEA5AFF4FE00FF11F108255
:107FD000118212821382C901E2CF61EB76E0C60101
:107FE0000E947B14E7962FAFE797E8963FAFE8979C
:107FF000E9964FAFE997EA965FAFEA97EB966FAFD6
:10800000EB97EC967FAFEC970C9407341F920F928E
:108010000FB60F9211240BB60F922F933F934F93ED
:108020005F936F937F938F939F93AF93BF93EF93E0
:10803000FF9388E69EE00E94BB05FF91EF91BF9100
:10804000AF919F918F917F916F915F914F913F91F0
:108050002F910F900BBE0F900FBE0F901F90189591
:108060001F920F920FB60F9211240BB60F922F93FF
:108070008F939F93EF93FF93E091780EF091790E99
:108080008081E0917E0EF0917F0E82FD1DC0908177
:108090008091810E8F5F8F732091820E821741F045
:1080A000E091810EF0E0E859F14F958F8093810EB9
:1080B000FF91EF919F918F912F910F900BBE0F9099
:1080C0000FBE0F901F9018958081F2CF1F920F92D4
:1080D0000FB60F9211240BB60F922F933F934F932D
:1080E0005F936F937F938F939F93AF93BF93EF9320
:1080F000FF9385E09FE00E94BB05FF91EF91BF9148
:10810000AF919F918F917F916F915F914F913F912F
:108110002F910F900BBE0F900FBE0F901F901895D0
:108120001F920F920FB60F9211240BB60F922F933E
:108130008F939F93EF93FF93E091150FF091160F9C
:108140008081E0911B0FF0911C0F82FD1DC090817A
:1081500080911E0F8F5F8F7320911F0F821741F048
:10816000E0911E0FF0E0EB5FF04F958F80931E0FB4
:10817000FF91EF919F918F912F910F900BBE0F90D8
:108180000FBE0F901F9018958081F2CF1F920F9213
:108190000FB60F9211242F933F938F939F93AF931A
:1081A000BF938091980A9091990AA0919A0AB091F0
:1081B0009B0A3091970A23E0230F2D3758F501963B
:1081C000A11DB11D2093970A8093980A9093990A54
:1081D000A0939A0AB0939B0A80919C0A90919D0A61
:1081E000A0919E0AB0919F0A0196A11DB11D809396
:1081F0009C0A90939D0AA0939E0AB0939F0ABF91F8
:10820000AF919F918F913F912F910F900FBE0F9043
:108210001F90189526E8230F0296A11DB11DD2CFFD
:108220001F920F920FB60F9211240BB60F922F933D
:108230003F934F935F936F937F938F939F93AF93EE
:10824000BF93EF93FF938091B900887F803609F444
:108250004DC008F040C0883209F4A9C028F580312B
:1082600009F49DC0C8F4882309F4FBC0883009F4E0
:1082700096C0FF91EF91BF91AF919F918F917F91A8
:108280006F915F914F913F912F910F900BBE0F9087
:108290000FBE0F901F901895883109F488C0803266
:1082A00041F780936E0A14C0803409F49DC040F4F5
:1082B0008033B9F38833E9F680936E0A85ECB0C059
:1082C000803509F485C0883509F496C0883489F66C
:1082D0000E943E2CCECF883909F48CC038F58837FF
:1082E00029F050F4883611F0803719F683E0809336
:1082F000700A1092270A57C0883809F47BC0803969
:1083000019F0803809F0B5CF8091270A803208F043
:1083100071C0E091270A81E08E0F8093270A809137
:10832000BB00F0E0E95FF54F80833DC0803B39F052
:10833000E0F4803A09F479C0883A09F09ACF84E0F1
:108340008093700A1092060A1092050AE091A60A1C
:10835000F091A70A19958091050A81110FC081E05B
:108360008093050A1092E50909C0803C09F4A6CF64
:10837000883C09F4A3CF883B09F07BCFE091060A43
:1083800081E08E0F8093060AF0E0EB51F64F80817A
:108390008093BB009091060A8091050A29C08091C4
:1083A0006B0A8093BB0085EC8093BC0062CF9091F8
:1083B0006D0A80916C0A981758F5E0916D0A81E07A
:1083C0008E0F80936D0AF0E0E65BF54F8081E9CF78
:1083D000E0916D0A81E08E0F80936D0A8091BB0061
:1083E000F0E0E65BF54F808390916D0A80916C0A16
:1083F0009817C8F285E8D8CFE0916D0A81E08E0F1A
:1084000080936D0A8091BB00F0E0E65BF54F8083BE
:1084100080916F0A81115CCF81E080936A0A84EABF
:108420008093BC001092700A24CF85EC8093BC002E
:108430001092700A8091270A803230F4E091270A66
:10844000F0E0E95FF54F10826091270A70E0E0915B
:10845000A40AF091A50A87E09AE019951092270ADC
:1084600008CF10926E0A34CF1F920F920FB60F9260
:1084700011240BB60F922F933F934F935F936F93FB
:108480007F938F939F93AF93BF93EF93FF93E0916D
:108490005D14F0915E14309749F0A685B785858507
:1084A000968D91FF16C09C918923B1F4FF91EF91B5
:1084B000BF91AF919F918F917F916F915F914F91FC
:1084C0003F912F910F900BBE0F900FBE0F901F90FA
:1084D00018959C91892351F7A389B4899C9185892A
:1084E000809589238C93868997890197F1F7608D10
:1084F000718DA685B785558538E020E0CB010197C1
:10850000F1F7822F90E095958795282F4C91452380
:1085100009F02068315091F7868D81FD209580917A
:10852000E20990E001968F7399273091E30938179B
:1085300099F0A091E209B0E0AE55B64F2C9380932C
:10854000E209828D938D0197F1F7A389B4898C910B
:108550009589892B8C93AACF868D8160868FF1CFE8
:108560001F93CF93DF93EC01198218821A821B822A
:108570001C821D82FC0136968CE1DF011D928A95DA
:10858000E9F718E37C96DF01812F1D928A95E9F7C0
:10859000F896118210826DE673E0CE01845A9F4FE7
:1085A0000E941728CE59DF4FDE011D921A95E9F778
:1085B000DF91CF911F910895CF93DF9310926B0EAF
:1085C00010926A0E48EE53E060E070E040936C0E4B
:1085D00050936D0E60936E0E70936F0E8DE093E06E
:1085E0009093690E8093680E2DEC30E03093750EF9
:1085F0002093740E2CEC30E03093770E2093760E9F
:1086000028EC30E03093790E2093780E29EC30E09E
:1086100030937B0E20937A0E2AEC30E030937D0E5F
:1086200020937C0E2EEC30E030937F0E20937E0E54
:108630001092810E1092820E1092830E1092840E70
:108640001092080F1092070F4093090F50930A0FD2
:1086500060930B0F70930C0F9093060F8093050F90
:1086600085EC90E09093120F8093110F84EC90E0D2
:108670009093140F8093130F80EC90E09093160F5B
:108680008093150F81EC90E09093180F8093170F53
:1086900082EC90E090931A0F8093190F86EC90E093
:1086A00090931C0F80931B0F10921E0F10921F0FA0
:1086B0001092200F1092210F83E090E09093A30F6F
:1086C0008093A20F9093A50F8093A40F9093A70F70
:1086D0008093A60F9093A90F8093A80F9093AB0F50
:1086E0008093AA0F89E493E09093621480936114BD
:1086F00081E090E090932D1580932C1510924015F9
:1087000010923F15409341155093421560934315C5
:108710007093441587E393E090933E1580933D1545
:10872000109254151092531510925615109255151B
:10873000109258151092571510925A1510925915FB
:1087400060915B156E7F6D7F60935B1566956170C0
:1087500081E068278BE00E94070761E08BE00E94C0
:10876000EA07E6E5F9E0E491E0934D15E0E1F9E090
:10877000E491F0E0EE0FFF1FE551F74F85919491E2
:1087800090934F1580934E1560E08AE00E94EA07AF
:1087900080915B1581FD04C061E08AE00E940707BB
:1087A0008AE080934915E5E5F9E0E491E0934A1504
:1087B000EFE0F9E0E491F0E0EE0FFF1FEF52F74F2A
:1087C0008591949190934C1580934B158DE395E191
:1087D00090935D1580935C1580E197E2A0E0B0E096
:1087E00080935E1590935F15A0936015B09361150B
:1087F00081E08093661581E593E090936014809307
:108800005F148DE593E0909362148093611483E08C
:1088100090E09093AD0F8093AC0F1092B10F109237
:10882000B00F48EE53E060E070E04093B20F509319
:10883000B30F6093B40F7093B50F2FE133E0309313
:10884000AF0F2093AE0F9093BB0F8093BA0F90930E
:10885000BD0F8093BC0F90935C1480935B1482E0F7
:1088600090E00E94A85125E5DC012C9311961C9202
:108870002EEB3FE030934C1420934B1490934E1406
:1088800080934D1480E492E4AFE0B0E080934F1405
:1088900090935014A0935114B093521481E090E03F
:1088A000909354148093531484E08093551481E37F
:1088B000809356148FEF80935714809358148093AD
:1088C000591410925A1483EF91E19093EE11809312
:1088D000ED1188E592E09093F0118093EF111092E2
:1088E000F2111092F11181E393E09093EC118093D7
:1088F000EB1181E591E10E94B042D0E0C0E06DE66D
:1089000073E0CE0183509F4E0E9417286DE673E0FE
:10891000CE018D5F9E4E0E9417286696C835D10500
:1089200071F7CAE9E5ECFFE0DF018C2F1D928A9513
:10893000E9F7CF010E94B042EFE5F0E1DF011D92BF
:10894000CA95E9F7CF010E94B0426DE673E08FEB64
:108950009FE0DF91CF910C941728CF93DF93CDB791
:10896000DEB7C259D1090FB6F894DEBF0FBECDBF36
:10897000789484B5826084BD84B5816084BD85B5FA
:10898000826085BD85B5816085BD80916E00816006
:1089900080936E00109281008091810082608093AC
:1089A00081008091810081608093810080918000AE
:1089B0008160809380008091B10084608093B100D9
:1089C0008091B00081608093B000809191008260BE
:1089D00080939100809191008160809391008091BB
:1089E00090008160809390008091A10082608093CC
:1089F000A1008091A10081608093A1008091A000DE
:108A000081608093A0008091210182608093210188
:108A100080912101816080932101809120018160FA
:108A20008093200180917A00846080937A00809105
:108A30007A00826080937A0080917A0081608093CE
:108A40007A0080917A00806880937A001092C10049
:108A500061E08CE00E94070768EC70E080E090E045
:108A60000E94570861E08CE00E94EA07E091150F30
:108A7000F091160F82E08083E091110FF091120FB8
:108A80001082E091130FF091140F80E18083109217
:108A90001D0FE091190FF0911A0F86E08083E0918D
:108AA000170FF091180F808180618083E091170F7C
:108AB000F091180F808188608083E091170FF0910A
:108AC000180F808180688083E091170FF091180F54
:108AD00080818F7D8083809101018460809301017A
:108AE000809102018B7F80930201549A5C9A579A7D
:108AF0005F9A569A5E9A559A5D9A63EB76E085E0A6
:108B00009FE00E94981809EF10E173EFE72E72E0E2
:108B1000F72ED80113961C921E9212976DE673E001
:108B2000C80104960E9452276DE673E0C8010A96B8
:108B30000E945227F801118A108AD801128A138ADA
:108B4000148A158AF70180819181F2E0EF0EF11C01
:108B50008C9311969C9361E00E94EA0760E0D80133
:108B60008C910E9407070A5E1F4FB1E101351B0778
:108B700081F6C12CD12C90E8E92E9FE3F92EC0920A
:108B8000A00AD092A10AE092A20AF092A30A80E978
:108B900091E09093DC0A8093DB0A80E090E0A0EB08
:108BA000B0E48093E10A9093E20AA093E30AB093C1
:108BB000E40A83EC95EFACE0B1E48093E50A90938E
:108BC000E60AA093E70AB093E80A85E89BEEADE1D8
:108BD000B1EC8093E90A9093EA0AA093EB0AB09370
:108BE000EC0A80E090E0A0E8B0E48093ED0A909376
:108BF000EE0AA093EF0AB093F00A80E090E0A0E2C2
:108C0000B0E48093F50A9093F60AA093F70AB09324
:108C1000F80A80E090E0A0ECBFE38093F10A909323
:108C2000F20AA093F30AB093F40A81E090E00E9464
:108C3000882782E090E00E94882783E090E00E94ED
:108C4000882784E090E00E9488271092AB0A109257
:108C5000AA0A1092A90A1092A80A0E94060A87E19D
:108C600095E09093A70A8093A60A88E195E09093F7
:108C7000A50A8093A40A61E08CE20E94EA0761E001
:108C80008DE20E94EA0760E08CE20E94070760E044
:108C90008DE20E94070761E085E30E94EA0719A2BE
:108CA0001AA285E38BA381E08CA30E94A90961E04D
:108CB0008BA10E94EA0761E08BA10E94070780E078
:108CC00091E29A83898360E071E2CE0101960E946D
:108CD0004409412C512C2AE7622E24E4722E4D8A3D
:108CE0005E8A6F8A788E31EF832E39E2932EA12C23
:108CF000B12C8B829C82AD82BE8261EF79E6CE017F
:108D000001960E9444098B819C81AD81BE814EE019
:108D1000B695A795979587954A95D1F79F73BC010E
:108D20007064CE0101960E944409498E5A8E6B8E62
:108D30007C8E8F829886A986BA8661EF79EACE0109
:108D400001960E9444098F819885A985BA855EE0C5
:108D5000B695A795979587955A95D1F79F73BC01BE
:108D60007068CE0101960E9444091E8E1D8E1B86DE
:108D70001C861D861E8660E070ECCE0101960E9466
:108D8000440918A21F8E1F86188A198A1A8A60E061
:108D900070EECE0101960E94440969817A817E7F3E
:108DA0007A836983CE0101960E94440901E010E0B4
:108DB0001C8B0B8B69817A816D717A836983CE01FB
:108DC00001960E94440969817A81777F7A83698359
:108DD000CE0101960E94440969817A817B7F7A8362
:108DE0006983CE0101960E94440980E090E0ACE8DE
:108DF000B2E48D8B9E8BAF8BB88F80EF92E0A0E0BA
:108E0000B0E08B839C83AD83BE8360EF72E4CE01C0
:108E100001960E9444098B819C81AD81BE816EE0E8
:108E2000B695A795979587956A95D1F79F73BC01DD
:108E30007064CE0101960E9444091C8B0B8B6981E2
:108E40007A816D717A836983CE0101960E9444090B
:108E500061E085E30E9407076CE271E080E090E04A
:108E60000E9457088DEC9CECACE4BEE38093AE0A04
:108E70009093AF0AA093B00AB093B10AC092B20A1D
:108E8000D092B30AE092B40AF092B50A1092B60AF0
:108E90001092B70A1092B80A1092B90A89E29CE5BA
:108EA000AFE4BFE38093BA0A9093BB0AA093BC0AD5
:108EB000B093BD0A80E090E0A0E9B0E48093BE0AE0
:108EC0009093BF0AA093C00AB093C10A80E090E0DB
:108ED000A0E6B0E48093C60A9093C70AA093C80A9C
:108EE000B093C90A80E090E0A0E2B0E48093C20AA7
:108EF0009093C30AA093C40AB093C50A80E090E09F
:108F0000A0E4BFE38093CE0A9093CF0AA093D00A47
:108F1000B093D10A80E090E0A0E8BEE38093CA0A53
:108F20009093CB0AA093CC0AB093CD0A8CA188234E
:108F300099F09FB7F8948091AD0A882319F0815079
:108F40008093AD0A8091AD0A811105C08CB58F7BED
:108F50008CBD1092AC0A9FBF61E0809156140E94B4
:108F6000EA0761E0809156140E94070780914B1434
:108F700090914C14892B09F4CAC10E94A90911E0EF
:108F800010935A140E94270980610E94BD080E9414
:108F900027098F770E94BD080E9427098F7B0E94B6
:108FA000BD080E943E090E948A08CE0187589F4F43
:108FB0000E94D90F61E087E00E94EA0761E087E044
:108FC0000E94070760E087E00E94070764EF71E0F6
:108FD00080E090E00E94570861E087E00E94070768
:108FE00062E370E080E090E00E9457086EEA76E06D
:108FF00085E09FE00E94190540E855E260E070E0DE
:1090000081E694E10E943620892B09F4A4C11093D3
:10901000370E68EA76E085E09FE00E94981886E3C4
:1090200099E3C057DF4F99838883C059D0406DE6DC
:1090300073E0CE0186579F4F0E94172889E0CE56D5
:10904000DF4F8883C259D0400E94431F8093D20AC9
:10905000F12C10E0EE24E3940091D20A1F5F00236C
:1090600009F417C280912E15811169C0E0922E1566
:10907000A6961FAEA697E0915F14F0916014369704
:109080008081918161E776E0855C9A4E0E941905A6
:10909000802F90E00E946F174FE957E064E670E080
:1090A00088E893E10E94C01D823009F046C06CE25E
:1090B00070E083E694E10E94B7538C010E5F1F4F6E
:1090C00062E270E0C8010E94B7536C01009791F012
:1090D000FC011082F80101900020E9F73197E01BB4
:1090E000F10BE43108F0AFC1B801CE018B599F4FAD
:1090F0000E94CB536AE070E0C60101960E94B7530C
:109100000097D9F08C010F5F1F4F6DE070E0C80130
:109110000E94B753009711F0DC011C92F8010190F6
:109120000020E9F73197E01BF10BE83208F098C115
:10913000B801CE01CD960E94CB5310922E1543E07C
:1091400050E0BE01635C7F4F85EA97E00E94D253F6
:109150008C01892B09F090C160E0C8010E94864F04
:109160000F5F1F4F03361105B9F769EA77E0CE01AB
:1091700080579F4F0E94CB53C057DF4F6881C05923
:10918000D04080E490E00E94864FCF56DF4F688148
:10919000C159D04081E490E00E94864F6CEE74E0AB
:1091A000CE01CD960E94A14B6CEE74E090E080E081
:1091B0000E94A14BBC0188E39EE00E94CB536CEE61
:1091C00074E090E080E00E94A14BBC0184E49EE04A
:1091D0000E94CB536CEE74E090E080E00E94A14BC3
:1091E000BC0180E59EE00E94CB530E9465166CEAAC
:1091F00077E0CE018B599F4F0E94E71E11E0812F2F
:109200000E94B21E1F5F1132D1F7CE0186579F4FC9
:109210000E942C2888E3E82E8EE0F82E10E000E073
:10922000C8010E947E4FD7018D937D010F5F1F4FB4
:1092300000331105A9F78091370E882309F4DEC1A8
:109240006DE976E085E09FE00E94190560E57EE02B
:10925000CE0101960E941728E980FA8064E47EE03E
:10926000CE01CD960E9417280DAD1EAD68E37EE0BD
:10927000CE018B599F4F0E941728A701B801A796CE
:109280008EAD9FADA7970E94F81D8C01CE018B5922
:109290009F4F0E942C28CE01CD960E942C28CE01F3
:1092A00001960E942C28012B09F4A1C164E976E003
:1092B00085E09FE00E9498188DEB93E00E948B1848
:1092C00068E873E180E090E00E9457080E94830BF9
:1092D00068EE73E080E090E00E9457080BEF12E028
:1092E0002091920230919302C8018B5F92408217C5
:1092F00093070CF08AC1F801F1908F0161E08F2D86
:109300000E94EA0760E08F2D0E940707E9CF61E025
:10931000809157140E94EA07809155148B7F60E07A
:1093200009F061E0809157140E940707809158145A
:109330008F3F41F061E00E94EA0761E0809158149C
:109340000E940707809159148F3F09F418CE60E0FE
:109350000E94EA0714CE1092370E63EA76E05BCEE5
:10936000BE016F5F7F4FCE018C579F4F0E94172821
:10937000CC57DF4F68817981C458D040CE018657E1
:109380009F4F6115710509F45BC00E945227CE0101
:109390008C579F4F0E942C2868E977E0CE018C57AC
:1093A0009F4F0E941728BE016C577F4FCE018657F2
:1093B0009F4F0E94961D8C01CE018C579F4F0E949B
:1093C0002C280F3F1F4F09F0A6C06EED77E0CE01AD
:1093D0008C579F4F0E941728BE016C577F4FCE01BC
:1093E00086579F4F0E94961D8C01CE018C579F4F30
:1093F0000E942C280F3F1F4F09F4BEC0CE018E568D
:109400009F4F0E94A216CE56DF4F8881C259D0408E
:10941000833009F4FACE6FE272E088E39EE00E94A6
:10942000CB536BE372E084E49EE00E94CB5367E48D
:1094300072E080E59EE00E94CB5383E090E08CC018
:109440000E94F626A4CF83E1F801DE01AB59BF4F9D
:1094500001900D928A95E1F7EA961FAEEA974ACEFF
:1094600087E2F801DE01DD9601900D928A95E1F721
:10947000A6961FAEA69761CE61ED77E0CE018B591F
:109480009F4F0E94E71EF3948091D20A0E94B21E61
:1094900010E060EA7FE080E090E00E9457080E94C0
:1094A000431F8093D20A1A3018F493E0F912D4CDF6
:1094B00060E27EE480E090E00E9457088FE897E049
:1094C0000E948B1860E177E280E090E00E945708EC
:1094D0008E010F5F1F4FE0915F14F091601436977B
:1094E00080819181855C9A4E0E943E0B1816190668
:1094F0000CF036CFE0915F14F091601436978081C4
:109500009181855C9A4E0E94620B181624F7D8014F
:109510008D938D01E0CFCE018E569F4F0E94A216F3
:10952000CE56DF4F8881C259D040813009F46DCECC
:1095300063E572E088E39EE00E94CB536FE572E042
:1095400084E49EE00E94CB536BE672E080E59EE0EF
:109550000E94CB5381E090E0CC57DF4F9983888302
:10956000C458D040CE018C579F4F0E9490160E9445
:109570007E160E94651649CE66EE77E0CE018C57C6
:109580009F4F0E941728BE016C577F4FCE01865710
:109590009F4F0E94961D8C01CE018C579F4F0E94B9
:1095A0002C280F3F1F4F09F430CECE018E569F4F0F
:1095B0000E94A216CE56DF4F8881C259D040823019
:1095C00009F423CE6BE072E088E39EE00E94CB5367
:1095D00067E172E084E49EE00E94CB5363E272E0B4
:1095E00080E59EE00E94CB5382E090E0B5CF6EE82C
:1095F00076E085E09FE00E9498186ACE6AE776E000
:1096000085E09FE00E94981869CE61E08FE10E949A
:10961000EA0760E08FE10E94070761E087E00E94AF
:10962000EA0761E087E00E9407070E94762C0E940B
:109630004A06FBCFCF93DF938FEB9FE00E942C284D
:109640008BEB90E10E942C2881E290E10E942C2873
:10965000C1E5D1E16697CE010A960E942C28CE0181
:1096600004960E942C2820E1C93FD20799F78DEA81
:1096700091E10E942C2881E593E0909360148093FF
:109680005F1489E493E0909362148093611487E3FC
:1096900093E090933E1580933D1580915D149091D9
:1096A0005E148D53954171F4E0915015F091511570
:1096B00090818091521580958923808310925E1449
:1096C00010925D14DF91CF910895EF920F931F9345
:1096D000CF93DF93E80134E047FD34E1042E000C22
:1096E000550B57FF03C0519541955109E32E022FA9
:1096F000242FAE010E94F94BCE01DF91CF911F9133
:109700000F91EF900895FC0188279927E894219103
:109710002032E9F3293010F02E30C8F32B3241F01B
:109720002D3239F4689404C00E94D74B820F911DEA
:10973000219120532A30C0F31EF4909581959F4FBC
:10974000089547E655E10C94A54BFA01A191B0812B
:10975000009719F41097E1F0CD01DC01CD010D90D7
:10976000002011F4C00113C0FB012191222319F044
:109770002015D9F7F3CFFB012191201519F41E9282
:10978000119606C02223C1F70D900020A1F7D00149
:10979000FA01A193B0830895BB274A3031F499238D
:1097A00022F4BDE2909581959F4F0C94E04B7AE0B6
:1097B000979F902D879F802D910D11240895BB2791
:1097C000FB015527AA27880F991FAA1FA41710F07D
:1097D000A41B83955051B9F7A05DAA3308F0A95D89
:1097E000A193009779F7B111B1931192CB010C9429
:1097F0004A4E8F929F92AF92BF92CF92DF92EF929A
:10980000FF920F931F93CF93DF9300D000D000D02F
:10981000CDB7DEB76A01F22EB02E102FFBE3AF2ECC
:10982000A01608F41BE31F5F012F27E0AE014F5F76
:109830005F4F0E94724DBC018981982F99709130C1
:1098400009F44EC09BE2E1FC04C09E2D9170E0FC47
:1098500049C05E2D5071E82FE87083FF55C084E049
:10986000911101C083E0EF2DE81B8F1508F0E0E0B7
:10987000D6018E2F20E25523C9F1992329F0D60174
:109880009C93C60101966C0196012D5F3F4FE2FE4D
:1098900033C08EE4D6018C9391E411969C9311977A
:1098A00012968C93D9018E2F90E281112AC0E20F7B
:1098B000F32FF11D10828EEF9FEF29960FB6F894CB
:1098C000DEBF0FBECDBFDF91CF911F910F91FF90F3
:1098D000EF90DF90CF90BF90AF909F908F900895C2
:1098E0009DE2B7CF90E2B5CF2D9381508111FCCF8F
:1098F000CE0ED11CE0E0C1CF8EE6D6018C9391E66E
:10990000CCCF9D938150D1CF482F447082FF3DC072
:1099100084E0911101C083E08F1510F4EF2DE81B56
:10992000D6018E2F20E2552309F1992329F0D60183
:109930009C93C60101966C0196012D5F3F4FE2FE9C
:109940001BC089E4D6018C938EE411968C931197F9
:1099500086E412968C93D9018E2F90E2882309F425
:10996000A6CF9D938150FACF2D9381508111FCCFCA
:10997000CE0ED11CE0E0D9CF89E6D6018C938EE6DD
:1099800011968C93119786E6E4CF9B0177FF02C076
:1099900030E020E0A1E0B0E0911102C0B0E0A0E032
:1099A000F9013196AE0FBF1F8B2C912CBB2009F40F
:1099B00061C05401EFEFAE1ABE0AAA0DBB1DFA1624
:1099C0001B0619F014F04F2D4A1B511188C0E3FCFF
:1099D00059C07601A42FB0E2A1114FC0C40ED11C12
:1099E000992309F45BC040E0D6011196F6019083FB
:1099F0006D01552309F448C0012F060F9A81582F95
:109A0000507184FF03C0913309F4015010160CF01B
:109A100047C0093008F008E0EEE2FE2E5B01A01A14
:109A2000B10885019194819491082F3F320729F460
:109A3000D601FC92F60131966F016217730794F11B
:109A4000021713077CF5DB01A21BB30BAA24A39416
:109A5000B12CAC0EBD1EAA0DBB1D11968C912150D0
:109A60003109D601119628153905F4F0F6018083E5
:109A70006D01DBCFB12CA12CA0CFF701B1937F01F9
:109A8000A150AACF9111B0CFD601942F50E302C0BC
:109A90005D9391509111FCCFC40ED11C40E0ACCF2E
:109AA00001E0BACF80E3DBCF6217730731F496335E
:109AB00088F4953311F4552369F0F6018083FD0194
:109AC000842F90E2811108C0A40FB11D1C9290E078
:109AD00080E0F3CE81E3F1CF91938150F3CF9111E8
:109AE00083CF8ACF283008F027E03327DA01990F97
:109AF000311D87FD916000966105710539F4326072
:109B00002E5F3D9330E32A95E1F708959F3F30F0B3
:109B100080387105610509F03C5F3C5F3D939130F1
:109B200008F08068911DDF93CF931F930F93FF92EE
:109B3000EF92192F987F9695E92F96959695E90FB4
:109B4000FF27EA5BFD4F99273327EE24FF24A70167
:109B5000E70105900894079428F4360FE71EF81ED5
:109B6000491F511D660F771F881F991F0694A1F783
:109B70000590079428F4E70EF81E491F561FC11DD3
:109B8000770F881F991F661F0694A1F70590079409
:109B900028F4F80E491F561FC71FD11D880F991FA3
:109BA000661F771F0694A1F70590079420F4490FCC
:109BB000561FC71FD81F990F661F771F881F06944F
:109BC000A9F784911095177041F0D695C7955795D0
:109BD0004795F794E7941A95C1F7ECEEF1E0689495
:109BE0001590159135916591959105907FE273954A
:109BF000E118F10A430B560BC90BD009C0F7E10C71
:109C0000F11E431F561FC91FD01D7EF4703311F47F
:109C10008A95E6CFE894015030F0080F0AF4002747
:109C2000021708F4202F2395022F7A3328F079E3C6
:109C30007D932A95E9F710C07D932A9589F60694BD
:109C400097956795379517951794E118F10A430B87
:109C5000560BC90BD00998F023957E9173957A33F2
:109C600008F070E37C932013B8F77E9170617D93C8
:109C700030F0839571E37D9370E32A95E1F7112429
:109C8000EF90FF900F911F91CF91DF91992787FD62
:109C900090950895DC01FC01672F71917723E1F71E
:109CA000329704C07C916D9370836291AE17BF07A9
:109CB000C8F308950E949C4E08F481E00895E8944A
:109CC00009C097FB3EF490958095709561957F4F04
:109CD0008F4F9F4F9923A9F0F92F96E9BB279395B2
:109CE000F695879577956795B795F111F8CFFAF4C2
:109CF000BB0F11F460FF1BC06F5F7F4F8F4F9F4FF3
:109D000016C0882311F096E911C0772321F09EE850
:109D1000872F762F05C0662371F096E8862F70E0B6
:109D200060E02AF09A95660F771F881FDAF7880F90
:109D30009695879597F90895990F0008550FAA0BE6
:109D4000E0E8FEEF16161706E807F907C0F012164E
:109D50001306E407F50798F0621B730B840B950B51
:109D600039F40A2661F0232B242B252B21F40895A6
:109D70000A2609F4A140A6958FEF811D811D089543
:109D80000E94D34E0C94444F0E94364F38F00E94EC
:109D90003D4F20F0952311F00C942D4F0C94334F30
:109DA00011240C94784F0E94554F70F3959FC1F386
:109DB000950F50E0551F629FF001729FBB27F00D79
:109DC000B11D639FAA27F00DB11DAA1F649F6627CE
:109DD000B00DA11D661F829F2227B00DA11D621F1D
:109DE000739FB00DA11D621F839FA00D611D221FD7
:109DF000749F3327A00D611D231F849F600D211DBB
:109E0000822F762F6A2F11249F5750409AF0F1F03D
:109E100088234AF0EE0FFF1FBB1F661F771F881FA6
:109E200091505040A9F79E3F510580F00C942D4F62
:109E30000C94784F5F3FE4F3983ED4F38695779582
:109E40006795B795F795E7959F5FC1F7FE2B880F4C
:109E5000911D9695879597F9089597F99F6780E8E2
:109E600070E060E008959FEF80EC089500240A946C
:109E70001616170618060906089500240A941216E5
:109E80001306140605060895092E0394000C11F418
:109E9000882352F0BB0F40F4BF2B11F460FF04C0C5
:109EA0006F5F7F4F8F4F9F4F089557FD9058440F1E
:109EB000551F59F05F3F71F04795880F97FB991F29
:109EC00061F09F3F79F087950895121613061406E6
:109ED000551FF2CF4695F1DF08C016161706180673
:109EE000991FF1CF86957105610508940895E8944E
:109EF000BB2766277727CB0197F90895F999FECFFD
:109F000092BD81BDF89A992780B50895262FF999B9
:109F1000FECF1FBA92BD81BD20BD0FB6F894FA9A4C
:109F2000F99A0FBE019608950E949F4FA59F900D2C
:109F3000B49F900DA49F800D911D11240895A29FA0
:109F4000B001B39FC001A39F700D811D1124911D0D
:109F5000B29F700D811D1124911D08955058BB278B
:109F6000AA270E94C64F0C94444F0E94364F38F0E7
:109F70000E943D4F20F039F49F3F19F426F40C94D1
:109F8000334F0EF4E095E7FB0C942D4FE92F0E9420
:109F9000554F58F3BA17620773078407950720F0E7
:109FA00079F4A6F50C94774F0EF4E0950B2EBA2FAA
:109FB000A02D0B01B90190010C01CA01A0011124CF
:109FC000FF27591B99F0593F50F4503E68F11A167B
:109FD000F040A22F232F342F4427585FF3CF46950C
:109FE00037952795A795F0405395C9F77EF41F162E
:109FF000BA0B620B730B840BBAF09150A1F0FF0FF8
:10A00000BB1F661F771F881FC2F70EC0BA0F621FE3
:10A01000731F841F48F4879577956795B795F795D3
:10A020009E3F08F0B0CF9395880F08F09927EE0F68
:10A030009795879508950E942F500C94444F0E9445
:10A040003D4F58F00E94364F40F029F45F3F29F011
:10A050000C942D4F51110C94784F0C94334F0E9457
:10A06000554F68F39923B1F3552391F3951B550B85
:10A07000BB27AA2762177307840738F09F5F5F4FDB
:10A08000220F331F441FAA1FA9F335D00E2E3AF01A
:10A09000E0E832D091505040E695001CCAF72BD032
:10A0A000FE2F29D0660F771F881FBB1F2617370783
:10A0B0004807AB07B0E809F0BB0B802DBF01FF27B5
:10A0C00093585F4F3AF09E3F510578F00C942D4F16
:10A0D0000C94784F5F3FE4F3983ED4F386957795E0
:10A0E0006795B795F7959F5FC9F7880F911D96956E
:10A0F000879597F90895E1E0660F771F881FBB1FCA
:10A10000621773078407BA0720F0621B730B840B76
:10A11000BA0BEE1F88F7E09508950E94945068945A
:10A12000B1110C94784F08950E945D4F88F09F57AD
:10A1300098F0B92F9927B751B0F0E1F0660F771F6B
:10A14000881F991F1AF0BA95C9F714C0B13091F061
:10A150000E94774FB1E008950C94774F672F782FC6
:10A160008827B85F39F0B93FCCF386957795679526
:10A17000B395D9F73EF490958095709561957F4F92
:10A180008F4F9F4F08950E949C4E08F48FEF0895C3
:10A1900019F416F40C94334F0C9413510E945D4F34
:10A1A000B8F39923C9F3B6F39F57550B87FF0E9465
:10A1B00021510024A0E640EA9001805856959795D9
:10A1C00028F4805C660F771F881F20F0261737075A
:10A1D000480730F4621B730B840B202931294A2B6A
:10A1E000A69517940794202531254A2758F7660F1E
:10A1F000771F881F20F026173707480730F4620BB7
:10A20000730B840B200D311D411DA09581F7B90101
:10A21000842F9158880F9695879508950E949C4E9B
:10A22000880B990B08959F3F31F0915020F487954A
:10A2300077956795B795880F911D9695879597F9AE
:10A24000089591505040660F771F881FD2F70895E8
:10A2500097FB072E16F4009407D077FD09D00E94D3
:10A26000945107FC05D03EF4909581959F4F089539
:10A27000709561957F4F0895A1E21A2EAA1BBB1B12
:10A28000FD010DC0AA1FBB1FEE1FFF1FA217B307C2
:10A29000E407F50720F0A21BB30BE40BF50B661FD8
:10A2A000771F881F991F1A9469F76095709580959C
:10A2B00090959B01AC01BD01CF010895052E97FB40
:10A2C0001EF400940E94755157FD07D00E943C5126
:10A2D00007FC03D04EF40C94755150954095309581
:10A2E00021953F4F4F4F5F4F089590958095709502
:10A2F00061957F4F8F4F9F4F0895EE0FFF1F881F6F
:10A300008BBF0790F691E02D19940E949F4FB7FFE5
:10A310000895821B930B0895B7FF0C94944F0E94ED
:10A32000944F821B930B0895AA1BBB1B51E107C0DE
:10A33000AA1FBB1FA617B70710F0A61BB70B881FD5
:10A34000991F5A95A9F780959095BC01CD01089564
:10A350000F931F93CF93DF938230910510F482E027
:10A3600090E0E0916B15F0916C1530E020E0B0E0EA
:10A37000A0E0309799F42115310509F44AC0281B53
:10A38000390B24303105D8F58A819B81611571051F
:10A3900089F1FB0193838283FE0111C040815181C9
:10A3A0000281138148175907E0F04817590799F4BB
:10A3B000109761F012960C93129713961C93329695
:10A3C000CF01DF91CF911F910F91089500936B15ED
:10A3D00010936C15F4CF2115310551F04217530736
:10A3E00038F0A901DB019A01BD01DF01F801C1CFFD
:10A3F000EF01F9CF90936C1580936B15CDCFFE01D3
:10A40000E20FF31F819391932250310939832883FE
:10A41000D7CF2091691530916A15232B41F42091F3
:10A4200096023091970230936A1520936915209116
:10A430009402309195022115310541F42DB73EB7B4
:10A440004091980250919902241B350BE0916915B7
:10A45000F0916A15E217F307A0F42E1B3F0B2817A3
:10A46000390778F0AC014E5F5F4F2417350748F08D
:10A470004E0F5F1F50936A15409369158193919316
:10A480009FCFF0E0E0E09CCFCF93DF930097E9F01F
:10A49000FC01329713821282A0916B15B0916C155A
:10A4A000ED0130E020E01097A1F420813181820F8E
:10A4B000931F2091691530916A152817390709F003
:10A4C00061C0F0936A15E0936915DF91CF9108950B
:10A4D000EA01CE17DF07E8F54A815B819E0141154D
:10A4E0005105B1F7E901FB83EA8349915991C40F02
:10A4F000D51FEC17FD0761F4808191810296840FCE
:10A50000951FE90199838883828193819B838A8344
:10A51000F0E0E0E012968D919C9113970097B9F5C9
:10A520002D913C911197CD010296820F931F20919E
:10A53000691530916A152817390739F6309751F5A2
:10A5400010926C1510926B15B0936A15A093691553
:10A55000BCCFD383C28340815181840F951FC8171C
:10A56000D90761F44E5F5F4F88819981480F591F69
:10A57000518340838A819B81938382832115310596
:10A5800009F0B0CFF0936C15E0936B159ECFFD01F1
:10A59000DC01C0CF13821282D7CF4F925F926F92AD
:10A5A0007F928F929F92AF92BF92CF92DF92EF9263
:10A5B000FF920F931F93CF93DF938C01009799F431
:10A5C000CB01DF91CF911F910F91FF90EF90DF9022
:10A5D000CF90BF90AF909F908F907F906F905F9043
:10A5E0004F900C94A851FC01E60FF71F9C012250DC
:10A5F0003109E217F30708F4AEC0D901CD91DC911F
:10A600001197C617D70720F1C530D10578F0CE01D4
:10A6100004978617970750F0C61BD70B2297C19354
:10A62000D1936D937C93CF010E944452C801DF9176
:10A63000CF911F910F91FF90EF90DF90CF90BF903F
:10A64000AF909F908F907F906F905F904F90089504
:10A650005B01AC1ABD0A4C018C0E9D1EA0916B15BE
:10A66000B0916C15512C412CF12CE12C109731F547
:10A670008091691590916A158815990509F05CC05B
:10A680004616570608F058C08091940290919502A2
:10A69000009741F48DB79EB740919802509199026E
:10A6A000841B950BE817F90708F055C0F0936A155D
:10A6B000E0936915F90171836083B8CF8D919C9106
:10A6C000119712966C90129713967C901397A81579
:10A6D000B90559F56C0142E0C40ED11CCA14DB0463
:10A6E00020F1AC014A195B09DA011296159780F046
:10A6F0006282738251834083D9016D937C93E1140C
:10A70000F10471F0D7011396FC93EE9312978ECF5C
:10A7100022968C0F9D1FF90191838083F301EFCF67
:10A72000F0936C15E0936B1581CF4816590608F429
:10A730002C017D01D3019ACFCB010E94A8517C014D
:10A74000009749F0AE01B8010E94AE53C8010E94C3
:10A75000445287016BCF10E000E068CFFB01DC01C1
:10A7600002C001900D9241505040D8F70895FC016D
:10A770008191861721F08823D9F799270895319779
:10A78000CF010895FB01DC018D910190801901102A
:10A79000D9F3990B0895FB01DC0101900D92002083
:10A7A000E1F70895FB01DC014150504030F08D91FC
:10A7B0000190801919F40020B9F7881B990B0895AE
:10A7C000FB01DC014150504048F001900D92002007
:10A7D000C9F701C01D9241505040E0F70895FB01B8
:10A7E00051915523A9F0BF01DC014D91451741114D
:10A7F000E1F759F4CD010190002049F04D91401549
:10A800004111C9F3FB014111EFCF81E090E00197C5
:10A81000089514E0CAECD4E000E006C0802FFE01E9
:10A820000E947D512196011DCB3CD10780E0080795
:06A83000A9F7F894FFCF28
:10A83600726A545871640000002041766970696E2E
:10A846007465726E657400766970696E7465726E91
:10A85600657400766970696E7465726E65740067FA
:10A8660070727377617000000000006D74730000F1
:10A876000000000000000030363400000000000038
:10A88600000000696E7465726E65740000000074E5
:10A89600656C656E6F720000000000677072730071
:10A8A60000000000000000000020410F00617070F1
:10A8B6002E736D6172747761746572696E672E723C
:10A8C60073000E0000006D1580001F1C1F1E1F1E4A
:10A8D6001F1F1E1F1E1F0000803FCDCCCC3D6F12D8
:10A8E600833A95BFD6337D1D9026B3CE010CCDCCD1
:10A8F600CC3D0AD7233C17B7D13877CC2B32959568
:10A90600E6241FB14F0A000020410000C842004063
:10A916001C4620BCBE4CCA1B0E5AAEC59D74050310
:10A926000609081E00290028002700181716191AFC
:10A936001B1C1D22232524212000000000DD053DCF
:10A94600056A052A069B0579058D05000000009B12
:10A956000A6E0AD20D1605670A540A450A00000057
:10A9660000920F00000000E20A3D05D20D16053EDA
:10A976000B620BCA0A00000000362002000000002D
:10A9860000B20BA50B560B0000FEFF00003620227E
:10A99600225C5C6208660C6E0A720D7409007A6F9E
:10A9A6006E6573006E756C6C006E616E00696E6626
:10A9B600006F7666004B70203D2000204B64203DE2
:10A9C60020006D41202028002529002E204B7020D4
:10A9D600002C204B6920002C204B6420006D415D2B
:10A9E600202B20434833205B006D415D0041542BF2
:10A9F6004349465352004552524F520041542B434D
:10AA06004950434C4F53450041542B4349505345FD
:10AA1600525645523D300041542B434950534855F8
:10AA2600540053485554204F4B0041542B43535424
:10AA3600543D2200220D0041542B43494943520004
:10AA46003E002B434D4753002B434D474C3A0041A4
:10AA5600540041542B4950523D002B43504D533A1C
:10AA66000041544500747275650066616C7365003B
:10AA76004E614E00496E66696E69747900652D00F7
:10AA860041542B43495053544152543D2254435050
:10AA9600222C2200222C00434F4E4E454354204F79
:10AAA6004B0041542B43495053454E4400504F539D
:10AAB60054200020485454502F312E310D0A486F2F
:10AAC60073743A2000557365722D4167656E743A4A
:10AAD6002041726475696E6F0D0A00436F6E74656E
:10AAE6006E742D547970653A206170706C6963617B
:10AAF60074696F6E2F782D7777772D666F726D2D4F
:10AB060075726C656E636F6465640D0A00436F6EE3
:10AB160074656E742D4C656E6774683A20000D0A74
:10AB26000D0A0053454E44204F4B0041542B4347DA
:10AB36004154543D300041542B43474154543D3118
:10AB460000537461727420464552542000202049F7
:10AB5600443A002F6170692F706F73742F666572A7
:10AB660074696C697A6174696F6E5F73746172740B
:10AB760065642E7068700053746F7070656420662B
:10AB8600657274696C697A6174696F6E20002F61F1
:10AB960070692F706F73742F66657274696C697A49
:10ABA6006174696F6E5F73746F707065642E706820
:10ABB6007000436F6D706C65746564207A6F6E61AA
:10ABC6006C2069727269676174696F6E20494420EE
:10ABD600006969643D002F6170692F706F73742F6F
:10ABE60069727269676174696F6E5F66696E6973AF
:10ABF6006865642E7068700020C2B04300646964A2
:10AC06003D00266669643D0026666964323D00267D
:10AC1600666964333D002666657270683D00266588
:10AC260063763D0026696964733D002F6170692F64
:10AC3600706F73742F73796E635F6465766963658D
:10AC46002E70687000666C6F77636F6E6600696958
:10AC5600640069727269676174696F6E6964006124
:10AC660075746F6D6F6465007A6F6E616C0050610C
:10AC76006C696D207A6F6E7520005374617274650D
:10AC860064207A6F6E616C2069727269676174699B
:10AC96006F6E20494420002F6170692F706F7374A6
:10ACA6002F69727269676174696F6E5F737461721E
:10ACB6007465642E706870006D6178647572617475
:10ACC600696F6E00616D6F756E7400537461727496
:10ACD600696E67207A6F6E65200066657270686BB4
:10ACE6000066657270686D006665726B70006665F9
:10ACF600726B69006665726B640065636B00656301
:10AD06006D00666572320064656300656370006598
:10AD16006369006563640065636832006563683370
:10AD2600006665726472760066657200647068001B
:10AD36006669640066696432006665723300666936
:10AD460064330073746F706972720053746F70703D
:10AD560065642069727269676174696F6E2049441F
:10AD660020002F6170692F706F73742F697272697A
:10AD7600676174696F6E5F73746F707065642E704F
:10AD860068700053746F70706564207A6F6E616CC2
:10AD96002069727269676174696F6E204944200088
:10ADA600202D206D6178206475726174696F6E0064
:10ADB600266D61786475726174696F6E3D3100410C
:10ADC600542B434F50533F004D4F4254454C002B9C
:10ADD600434D475200535720005357004F7065723A
:10ADE600617465722055737065736E6F20506F6461
:10ADF6006573656E202850726F6D656E6A656E2983
:10AE060000506F67726573616E20534D5300546531
:0CAE16006C656B6F6D003232303035001F
:00000001FF
